:100000000C94FF000C941C010C941C010C941C011A
:100010000C941C010C941C010C94CA050C941C013A
:100020000C941C010C941C010C941C010C94A5054F
:100030000C941C010C941C010C9403070C941C01DF
:100040000C941C010C941C010C940C090C943709A1
:100050000C941C010C941C010C941C010C941C01AC
:100060000C941C010C941C01445331385832305FFD
:1000700073746172745F6D6561733A2053686F7257
:10008000742043697263756974210D0020435243E3
:10009000204F2E4B2E200020435243204641494CF6
:1000A000200028203F20290028323229002831381A
:1000B0004229002831385329002000534E3A2000AD
:1000C0004352433A0046433A0020B043002064655F
:1000D0006369B0432C2000427573204572726F72C1
:1000E0000D0A004E6F2053656E736F7220666F7538
:1000F0006E640D0A000D0A5363616E6E696E6720AF
:1001000042757320666F7220445331385832300D77
:100110000A000D0A000D0A0020706F776572656491
:100120000D0A0065787465726E616C6C790070619F
:100130007261736974650020776869636820697308
:100140002000445331384232300044533138323287
:1001500000445331385332302F4453313832300059
:100160002069732061200053656E736F7223200035
:100170000D0A00203A20002320696E20427573206A
:100180003A0020445331385832302053656E736F33
:100190007228732920617661696C61626C653A0D21
:1001A0000A002D2D2D2D2D2D2D2D2D2D2D2D2D2DCF
:1001B0002D2D2D2D2D2D2D2D2D2D2D2D2D2D2D2D6F
:1001C0002D2D2D2D2D2D2D2D2D2D2D2D2D000D0ACF
:1001D0004453313858323020312D576972652D52D1
:1001E00065616465722044656D6F206279204D61A0
:1001F0007274696E2054686F6D61730D0A0011246A
:100200001FBECFEFD8E0DEBFCDBF11E0A0E0B1E070
:10021000EAE9F4E102C005900D92AA32B107D9F7DC
:1002200021E0AAE2B1E001C01D92AF39B207E1F7C7
:100230000E94D9070C944B0A0C94000061157105BB
:10024000B1F0FC01680F791F80E058E048E121918E
:10025000952F322F382730FF0CC084278695806871
:1002600026959150B1F7E617F70789F7089580E0D2
:1002700008958695F5CFFB01418150E0542F442726
:100280009081492B9A01803191F44E7F440F551F84
:10029000440F551F440F551F96812CE030E0291B59
:1002A0003109240F351F33230CF05BC002C05523E6
:1002B0002CF4319521953109A1E001C0A0E08832EC
:1002C00011F0823269F484818076803231F080349A
:1002D00031F0811105C0287F03C02C7F01C02E7F23
:1002E000A901529542954F7045275F704527BA0185
:1002F000660F771F440F551F440F551F440F551F9E
:10030000640F751F2F703327C9019695982F882782
:1003100097958795322F2227330F820F931FA111B4
:1003200015C0AC015E5F452F5527469546959B014C
:10033000240F351FC9018A5D9D4F8930974018F4FD
:10034000822F932F089580ED97E00895892F9927A4
:10035000869586959B01280F391F31952195310986
:10036000E9CFF901F295E295EF70EF27FF70EF27E3
:10037000BF01660F771FEE0FFF1FEE0FFF1FEE0F7F
:10038000FF1F6E0F7F1FA9014F705527CA01969559
:10039000982F882797958795542F4427550F840FBA
:1003A000951FBFCFEF92FF920F931F93CF93DF93D1
:1003B0007B01042FBC018EEB0E941B05002369F01A
:1003C000E701015010E00F5F1F4F0E0D1F1D0E942F
:1003D000BD048993C017D107D1F769E070E0C70168
:1003E0000E941E01811183E0DF91CF911F910F9137
:1003F000FF90EF900895AF92BF92CF92DF92EF926D
:10040000FF920F931F93CF93DF935C017B016115E4
:10041000710509F45BC08C01C0E0D0E06B0181E0A4
:10042000C81AD108209769F485EC90E00E949E09D3
:10043000F80180810E94D40989EB90E00E949E0916
:1004400023C0CC16DD0609F05BC080EC90E00E9472
:100450009E09F1E0CF16D10469F48BEB90E00E9485
:100460009E09F80180810E94D40989EB90E00E94E6
:100470009E0925C0F80180810E94D40989EB90E093
:100480000E949E092097D9F4F5018081803129F4DA
:1004900083EB90E00E949E0912C0883229F48DEA15
:1004A00090E00E949E090BC0823229F488EA90E015
:1004B0000E949E0904C082EA90E00E949E09219653
:1004C0000F5F1F4FCE15DF0509F0ACCF68E070E07D
:1004D000C5010E941E01882329F087E990E00E944F
:1004E0009E0912C08CE890E00E949E090DC0F801A0
:1004F00080810E94D40989EB90E00E949E09DFCFA1
:10050000C130D105A1F7A9CFDF91CF911F910F91F4
:10051000FF90EF90DF90CF90BF90AF9008950F9332
:100520001F93CF93DF93EC018B01B80188810E9468
:10053000C104888381508D3F50F4F8019081983236
:1005400041F0903141F0923281F780E005C081E0C6
:1005500003C080E001C080E0DF91CF911F910F9137
:100560000895CF93DF93EC010E940004BE0184EB59
:100570000E941B0581E00E945C04C82F0E940004B9
:1005800081E0C11101C080E0DF91CF9108951F93F8
:10059000CF93DF93182FEB010E9400040E949E036B
:1005A000882371F0113031F0BE0184E40E941F05F0
:1005B00080E00BC0BE0184E40E941B0580E005C002
:1005C00088E690E00E949E0982E0DF91CF911F9122
:1005D0000895EF92FF920F931F93CF93DF93CDB7C0
:1005E000DEB727970FB6F894DEBF0FBECDBF9C01D4
:1005F0007B01473008F460C089519C4F873F9A4285
:1006000008F05CC033232CF431952195310901E0C9
:1006100001C000E010E06AE070E0C9010E94DF095B
:1006200091E0910FE1E0F0E0EC0FFD1FE10FF11D13
:1006300017FDFA95805D8083262F372F192F12160C
:1006400013064CF3892F002359F02DE2FE01E90F28
:10065000F11D97FDFA952183882364F420E026C0DC
:100660002BE2FE01E90FF11D97FDFA952183F4CFEE
:10067000822F02C080E04EE221E0280F392F9150F6
:10068000E1E0F0E0EC0FFD1FE30FF11D3081F70119
:10069000E80FF11D3083911107C0F701E20FF11D42
:1006A000408322E0280FE4CF992314F7F701E20FEB
:1006B000F11D108280E003C081E001C081E0279637
:1006C0000FB6F894DEBF0FBECDBFDF91CF911F9163
:1006D0000F91FF90EF900895EF92FF920F931F9369
:1006E000CF93DF93CDB7DEB729970FB6F894DEBF6F
:1006F0000FBECDBF082F7B0149E0BE016F5F7F4F6A
:1007000080E090E00E94D201182F811109C0BE0143
:100710006F5F7F4F802F0E943B01F70191838083A1
:10072000812F29960FB6F894DEBF0FBECDBFDF91A3
:10073000CF911F910F91FF90EF900895E091930159
:10074000F091940190818091920189230895E09124
:100750009001F0919101908180919201892B808389
:10076000E0919501F0919601908180919201892B01
:1007700080830895CF93DF93C82FDFB7F894E0917B
:100780009501F0919601908180919201892B80834F
:100790008AE08A95F1F700C0CC2351F0E0919501F1
:1007A000F0919601208190919201909592239083EF
:1007B00085E48A95F1F70000E0919301F0919401AE
:1007C000208190919201922309F4C0E085EE8A95F0
:1007D000F1F70000E0919501F09196012081909150
:1007E000920190959223908361110E94A703DFBF2D
:1007F00085E38A95F1F700008C2FDF91CF91089562
:10080000E0919001F0919101908180919201809509
:1008100089238083E0919501F091960190818091E8
:100820009201892B80838FE797E00197F1F700C051
:1008300000002FB7F894E0919501F0919601908116
:1008400080919201809589238083EFEFF0E03197CA
:10085000F1F700C00000E0919301F0919401308124
:10086000809192012FBFEFE7F6E03197F1F700C0DA
:100870000000E0919301F091940120819091920108
:10088000922311F08323089581E0089550939601F7
:10089000409395017093910160939001909394011E
:1008A0008093930181E001C0880F2A95EAF7809335
:1008B00092010E940004089560E081700E94BA03D2
:1008C0000895CF93DF93C82FD8E08C2F81700E94BA
:1008D0005C04C6958111C068D150B9F78C2FDF91A7
:1008E000CF910895CF93DF93C82FD8E0D13049F04E
:1008F00060E08C2F81700E94BA03C695811109C0F7
:1009000009C061E08C2F81700E94BA03C6958823CC
:1009100019F0C068D15051F78C2FDF91CF91089515
:10092000EF92FF920F931F93CF93DF93E82EEB018B
:10093000F42E0E940004209769F085E50E9461046E
:100940008E01085F1F4F89910E946104C017D10773
:10095000D1F703C08CEC0E946104FF2021F08E2DA2
:100960000E94720403C08E2D0E946104DF91CF911A
:100970001F910F91FF90EF9008958FEF0E946104F7
:100980000895DF92EF92FF920F931F93CF93DF931F
:10099000D82E8B010E94000481112BC080EF0E9491
:1009A0006104E12CC0E40F2EF8EFFF2EF02DFC0EB9
:1009B00081E00E945C04D82F81E00E945C048823BF
:1009C00019F0DD23D1F017C0D11124C0CD15E8F006
:1009D000F801808180FF11C0DC121AC00EC0C15026
:1009E000CF11E6CF0F5F1F4FCF2DF110DCCF8E2D33
:1009F0001AC08FEF18C08EEF16C080E00E945C0412
:100A0000F801908196959083EACFEC2ED1E002C058
:100A1000EC2ED1E08D2F0E945C04F8019081969518
:100A200090689083DCCFDF91CF911F910F91FF9061
:100A3000EF90DF90089540E00E949004089541E017
:100A40000E9490040895CF93DF93CDB7DEB7299726
:100A50000FB6F894DEBF0FBECDBF85EF90E00E94C9
:100A60009E090E9400048FEF8987BE016F5F7F4F50
:100A7000CE0109960E948F0289858F3F31F483EE63
:100A800090E00E949E0980E015C08E3F31F487ED12
:100A900090E00E949E0980E00DC0FE013196A7E91A
:100AA000B1E09E01275F3F4F81918D93E217F307DD
:100AB000D9F781E029960FB6F894DEBF0FBECDBFFF
:100AC000DF91CF9108950F931F93CF93DF93CDB70D
:100AD000DEB72A970FB6F894DEBF0FBECDBF8C01EC
:100AE0000E94B0098DEC90E00E949E094AE0BE0190
:100AF0006F5F7F4FC8010E94E902CE0101960E94FC
:100B00008F0989EC90E00E949E092A960FB6F8940E
:100B1000DEBF0FBECDBFDF91CF911F910F91089522
:100B200060E070E081E00E94C7022FEF8EE994E25E
:100B3000215080409040E1F700C0000064E471E083
:100B4000809197010E946C0308951F920F920FB637
:100B50000F9211248F939F93AF93BF938091300195
:100B600090913101A0913201B09133010196A11D04
:100B7000B11D8093300190933101A0933201B09365
:100B80003301BF91AF919F918F910F900FBE0F9046
:100B90001F9018951F920F920FB60F9211248F93EA
:100BA0000FB6F894A89580916000886180936000EA
:100BB000109260000FBE1092430184E080932B01DD
:100BC0008F910F900FBE0F901F901895F894609121
:100BD000300170913101809132019091330178940C
:100BE000089598E288E10FB6F894A8958093600084
:100BF0000FBE90936000A895E0E6F0E080818064ED
:100C000080830895A8950FB6F894A8958091600008
:100C1000886180936000109260000FBEE0E6F0E013
:100C200080818F7B80830895FF920F931F93CF93D2
:100C3000DF938823D9F0182FC7E4D1E00F2EFFE00F
:100C4000FF2EF02D00E10E9402068FB7F894F88283
:100C500009830A831B838FBF2FEF87EA91E6215018
:100C600080409040E1F700C00000EDCFDF91CF91D0
:100C70001F910F91FF90089587B18F7C87B988B13C
:100C8000806388B9089584B18F6384B98AB180661E
:100C90008AB987B18F6087B9089510928500109244
:100CA000840087E08093890080ED80938800E0E8ED
:100CB000F0E0108280818083E1E8F0E080818A604A
:100CC0008083EFE6F0E0808182608083089516BC27
:100CD0008AEF87BD14BC84B5826084BD85B584600D
:100CE00085BDEEE6F0E08081826080830895CF923A
:100CF000DF92EF92FF921F93CF93DF9316B1C82F2D
:100D0000D0E0FE01E050FF4F80811823FE01E05C3F
:100D1000FE4F8081811789F0FE01E05CFE4F108359
:100D20000E94E605FE01EE0FFF1FEE0FFF1FE85CBD
:100D3000FE4F60837183828393830E94E605FE01E8
:100D4000EE0FFF1FEE0FFF1FE85CFE4FC080D1804B
:100D5000E280F380DC01CB018C199D09AE09BF094B
:100D60008897A105B105C8F0FE01EE5FFE4F8081B6
:100D7000811799F0FE01EE5FFE4F10831095FE0182
:100D8000E050FF4F8081FE01EA5CFE4F912F9823D7
:100D90009083CC5CDE4F18271883DF91CF911F9191
:100DA000FF90EF90DF90CF900895813158F5643037
:100DB00048F590E0FC01EE0FFF1FE85FFE4F208139
:100DC000623009F4216035B1322B35B935B1206C70
:100DD000232325B9880F991FFC01E85FFE4F81810D
:100DE0009BB1982B9BB99BB18F6989238BB988B133
:100DF000807F88B998B1E62FF0E0EC5FFE4F8081EC
:100E0000892B88B908951F920F920FB60F92112463
:100E10002F933F934F935F936F937F938F939F9302
:100E2000AF93BF93EF93FF938091460183708093BC
:100E3000460180912A018F5F80932A0180914601AB
:100E4000811113C080914201882379F08091430180
:100E5000813059F480912A01882324F48BE0809317
:100E6000470103C08AE08093470160914601E09109
:100E70004601F0E0E95BFE4F80810E94D50680913B
:100E800046018F5F80934601FF91EF91BF91AF9133
:100E90009F918F917F916F915F914F913F912F9192
:100EA0000F900FBE0F901F901895FF920F931F93F6
:100EB000CF93DF93FC01F62E9C013695279536954E
:100EC000279536952795A5ECB0E20E94F309EC0131
:100ED000D295C295CF70CD27DF70CD2728EE33E0B5
:100EE000C29FC001C39F900DD29F900D1124AF01EE
:100EF000481B590BFF2314F4CBE0D0E09A01369540
:100F0000279536952795ABE7B4E10E94F3098C014C
:100F10001695079524E6209FC001219F900D11246E
:100F2000481B590B9A01ADECBCEC0E94F309969555
:100F300087959695879596958795BC01660F771F3F
:100F40009C01220F331F220F331F220F331F260F46
:100F5000371F421B530B22E0F21639F023E0F21642
:100F600091F021E0F21216C003C0CDE0D0E012C033
:100F70000115110519F4209749F00CC0209751F480
:100F8000CAE0D0E007C0CEE0D0E004C0CAE0D0E0C4
:100F90000AE010E09FB7F894E7E4F1E0C083018332
:100FA000828343839FBFDF91CF911F910F91FF9069
:100FB000089587E690E00E94610927E04AE250E048
:100FC0006BE270E089E290E00E94460478948EEC37
:100FD00091E00E949E0982EA91E00E949E090E948F
:100FE0002305F82E8111FFC081E080932B0180E062
:100FF00090E00E94B00982E891E00E949E095BC0E7
:1010000087E791E00E949E09C8010E94B00983E72A
:1010100091E00E949E0968E070E0C6010E94FB0119
:1010200080E791E00E949E090F5F1F4F28E0C20EEB
:10103000D11C0C171D0721F7EAC087E691E00E943A
:101040009E09C8010E94B00980E691E00E949E09B5
:10105000DC2EED2E2881203129F481E591E00E94DB
:101060009E090BC0223229F48AE491E00E949E0975
:1010700004C082E491E00E949E0987E391E00E940F
:101080009E098D2D9E2D0E94B102811105C08EE218
:1010900091E00E949E0904C083E291E00E949E09B3
:1010A00088E191E00E949E090F5F1F4F28968FEF05
:1010B000800F8F1510F20E9443060E9467060E945F
:1010C0004D060E943C0681E0809343018FEF93ED33
:1010D00020E3815090402040E1F700C000000E94D2
:1010E000F105C6E3D1E011E002E080912B010E94FE
:1010F000140680E00E9477068881882361F01882B8
:10110000809143018F5F809343018091430184303C
:1011100011F41093430180914301823009F453C0CC
:10112000833009F458C0813001F70E94E605C09071
:101130002C01D0902D01E0902E01F0902F01DC01C8
:10114000CB018C199D09AE09BF09883E9340A105CA
:10115000B10518F10E94E60560932C0170932D01F2
:1011600080932E0190932F010E949005609143017E
:1011700080914401909145010E945507A89585E111
:1011800091E00E949E0980914401909145010E9446
:10119000630582E191E00E949E0980914401909153
:1011A00045018D3221E0920714F000932B018A3F14
:1011B000910514F410934201853091400CF495CFC1
:1011C0001092420192CF6091430184E091E00E942D
:1011D0005507A8958ACF609143018AEF90E00E945D
:1011E0005507A89582CF90E00E94B00982E891E06F
:1011F0000E949E090F2EF7E9CF2EF1E0DF2EF02D91
:10120000CFEFCF0DD0E0229601E010E0F9CEC7E994
:10121000D1E001E010E011CF1F920F920FB60F92B4
:1012200011242F938F939F93EF93FF938091C0008E
:101230002091C6008871E0914D01EF5FEF719091B0
:101240004C01E91739F0E0934D01F0E0E05BFE4F0F
:10125000208301C082E080934B01FF91EF919F9129
:101260008F912F910F900FBE0F901F9018951F9286
:101270000F920FB60F9211248F939F93EF93FF93CA
:1012800090914F0180914E01981769F0E0914E01C5
:10129000EF5FEF71E0934E01F0E0E059FE4F808187
:1012A0008093C60005C0E1ECF0E080818F7D8083F3
:1012B000FF91EF919F918F910F900FBE0F901F9014
:1012C000189510924F0110924E0110924D011092FC
:1012D0004C01992324F422E02093C0009F7790933F
:1012E000C5008093C40088E98093C10086E08093A4
:1012F000C200089520914F012F5F2F7190914E01F0
:101300002917E1F3E22FF0E0E059FE4F80832093AC
:101310004F01E1ECF0E08081806280830895CF93FB
:10132000DF93EC018881882331F021960E947A09AD
:1013300089918111FBCFDF91CF910895CF93DF93F6
:10134000EC012196FC018491882339F00E947A09EE
:10135000FE01849121968111F9CFDF91CF910895FB
:10136000CF93DF93CDB7DEB72A970FB6F894DEBFE1
:101370000FBECDBF4AE0BE016F5F7F4F0E94160ACD
:101380000E948F092A960FB6F894DEBF0FBECDBF1C
:10139000DF91CF9108958F708A3010F0895C01C081
:1013A000805D0E947A090895CF93C82F82958F702F
:1013B0000E94CB098C2F0E94CB09CF91089597FBF7
:1013C000072E16F4009407D077FD09D00E94020A78
:1013D00007FC05D03EF4909581959F4F0895709538
:1013E00061957F4F0895A29FB001B39FC001A39F55
:1013F000700D811D1124911DB29F700D811D11244E
:10140000911D0895AA1BBB1B51E107C0AA1FBB1F5A
:10141000A617B70710F0A61BB70B881F991F5A9580
:10142000A9F780959095BC01CD010895BB274A305E
:1014300031F4992322F4BDE2909581959F4F0C944D
:10144000220ABB27FB015527AA27880F991FAA1F2D
:10145000A41710F0A41B83955051B9F7A05DAA33CF
:1014600008F0A95DA193009779F7B111B19311929A
:10147000CB010C943B0ADC01FC01672F71917723AF
:10148000E1F7329704C07C916D9370836291AE173F
:0A149000BF07C8F30895F894FFCFDA
:10149A0010201020010204083A600A002C602E4035
:1014AA001E00364036602A003E603E4000001000B2
:0A14BA00040020000040346004200C
:00000001FF
