S018000031776972655F6D617274696E5F746F6D2E737265638B
S11300000C94FA000C9417010C9417010C9417012A
S11300100C9417010C9417010C9400050C9417010F
S11300200C9417010C9417010C9417010C94DB0425
S11300300C9417010C9417010C946F060C9417017F
S11300400C9417010C9417010C949D080C94C80887
S11300500C9417010C9417010C9417010C941701BC
S11300600C9417010C941701445331385832305F03
S113007073746172745F6D6561733A2053686F7253
S1130080742043697263756974210D0020435243DF
S1130090204F2E4B2E200020435243204641494CF2
S11300A0200028203F202900283232290028313816
S11300B04229002831385329002000534E3A2000A9
S11300C04352433A0046433A0042757320457272E4
S11300D06F720D0A004E6F2053656E736F72206647
S11300E06F756E640D0A000D0A5363616E6E696E5E
S11300F0672042757320666F72204453313858323A
S1130100300D0A000D0A000D0A000D0A0020706F60
S113011077657265640D0A0065787465726E616C4A
S11301206C79007061726173697465002077686925
S113013063682069732000445331384232300044EC
S1130140533138323200445331385332302F445310
S113015031383230002069732061200053656E739A
S11301606F722320000D0A00203A20002320696EBC
S113017020427573203A00204453313858323020DD
S113018053656E736F7228732920617661696C619F
S1130190626C653A0D0A002D2D2D2D2D2D2D2D2D42
S11301A02D2D2D2D2D2D2D2D2D2D2D2D2D2D2D2D7B
S11301B02D2D2D2D2D2D2D2D2D2D2D2D2D2D2D2D6B
S11301C02D2D000D0A4453313858323020312D572B
S11301D06972652D5265616465722044656D6F2096
S11301E06279204D617274696E2054686F6D617319
S11301F00D0A000011241FBECFEFD8E0DEBFCDBF33
S113020011E0A0E0B1E0EAEAF3E102C005900D924A
S1130210AE32B107D9F721E0AEE2B1E001C01D92E0
S1130220A43AB207E1F70E9454070C94D3090C9442
S1130230000061157105B1F0FC01680F791F80E0C1
S113024058E048E12191952F322F382730FF0CC018
S113025084278695806826959150B1F7E617F707AD
S113026089F7089580E008958695F5CFFB014181D3
S113027050E0542F44279081492B9A01803191F406
S11302804E7F440F551F440F551F440F551F968131
S11302902CE030E0291B3109240F351F33230CF0E7
S11302A05BC002C055232CF4319521953109A1E09E
S11302B001C0A0E0883211F0823269F48481807632
S11302C0803231F0803431F0811105C0287F03C0C1
S11302D02C7F01C02E7FA901529542954F7045276E
S11302E05F704527BA01660F771F440F551F440FEF
S11302F0551F440F551F640F751F2F703327C901F5
S11303009695982F882797958795322F2227330F14
S1130310820F931FA11115C0AC015E5F452F5527B5
S1130320469546959B01240F351FC9018A5D9D4F53
S11303308930974018F4822F932F089580ED97E029
S11303400895892F9927869586959B01280F391F33
S1130350319521953109E9CFF901F295E295EF70D4
S1130360EF27FF70EF27BF01660F771FEE0FFF1F08
S1130370EE0FFF1FEE0FFF1F6E0F7F1FA9014F70BF
S11303805527CA019695982F882797958795542FB6
S11303904427550F840F951FBFCFEF92FF920F9301
S11303A01F93CF93DF937B01042FBC018EEB0E943C
S11303B09304002369F0E701015010E00F5F1F4F21
S11303C00E0D1F1D0E9435048993C017D107D1F764
S11303D069E070E0C7010E941901811183E0DF9197
S11303E0CF911F910F91FF90EF900895AF92BF921C
S11303F0CF92DF92EF92FF920F931F93CF93DF93ED
S11304005C017B016115710509F45BC08C01C0E0DE
S1130410D0E06B0181E0C81AD108209769F485EC1B
S113042090E00E942F09F80180810E94650989EB00
S113043090E00E942F0923C0CC16DD0609F05BC0B2
S113044080EC90E00E942F09F1E0CF16D10469F40A
S11304508BEB90E00E942F09F80180810E946509CE
S113046089EB90E00E942F0925C0F80180810E9449
S1130470650989EB90E00E942F092097D9F4F501D2
S11304808081803129F483EB90E00E942F0912C00F
S1130490883229F48DEA90E00E942F090BC0823241
S11304A029F488EA90E00E942F0904C082EA90E0CF
S11304B00E942F0921960F5F1F4FCE15DF0509F00B
S11304C0ACCF68E070E0C5010E941901882329F0CF
S11304D087E990E00E942F0912C08CE890E00E9406
S11304E02F090DC0F80180810E94650989EB90E015
S11304F00E942F09DFCFC130D105A1F7A9CFDF9129
S1130500CF911F910F91FF90EF90DF90CF90BF900C
S1130510AF9008950F931F93CF93DF93EC018B015A
S1130520B80188810E943904888381508D3F50F43A
S1130530F8019081983241F0903141F0923281F784
S113054080E005C081E003C080E001C080E0DF916D
S1130550CF911F910F910895CF93DF93EC010E94E7
S11305607803BE0184EB0E94930481E00E94D403CB
S1130570C82F0E94780381E0C11101C080E0DF919F
S1130580CF9108951F93CF93DF93182FEB010E940F
S113059078030E941603882371F0113031F0BE01F4
S11305A084E40E94970480E00BC0BE0184E40E94AE
S11305B0930480E005C088E690E00E942F0982E061
S11305C0DF91CF911F910895EF92FF920F931F93A4
S11305D0CF93DF93CDB7DEB729970FB6F894DEBF7C
S11305E00FBECDBF082F7B0149E0BE016F5F7F4F77
S11305F080E090E00E94CD01182F811109C0BE0156
S11306006F5F7F4F802F0E943601F70191838083B3
S1130610812F29960FB6F894DEBF0FBECDBFDF91B0
S1130620CF911F910F91FF90EF900895E091980161
S1130630F091990190818091970189230895E09127
S11306409501F0919601908180919701892B808387
S1130650E0919A01F0919B01908180919701892BFF
S113066080830895CF93DF93C82FDFB7F894E09188
S11306709A01F0919B01908180919701892B80834D
S11306808AE08A95F1F700C0CC2351F0E0919A01F9
S1130690F0919B01208190919701909592239083F2
S11306A085E48A95F1F70000E0919801F0919901B1
S11306B0208190919701922309F4C0E085EE8A95F8
S11306C0F1F70000E0919A01F0919B012081909153
S11306D0970190959223908361110E941F03DFBFBD
S11306E085E38A95F1F700008C2FDF91CF9108956F
S11306F0E0919501F0919601908180919701809508
S113070089238083E0919A01F0919B0190818091EB
S11307109701892B80838FE797E00197F1F700C059
S113072000002FB7F894E0919A01F0919B01908119
S113073080919701809589238083EFEFF0E03197D2
S1130740F1F700C00000E0919801F0919901308127
S1130750809197012FBFEFE7F6E03197F1F700C0E2
S11307600000E0919801F091990120819091970106
S1130770922311F08323089581E0089550939B01FF
S113078040939A0170939601609395019093990117
S11307908093980181E001C0880F2A95EAF780933D
S11307A097010E947803089560E081700E943203EB
S11307B00895CF93DF93C82FD8E08C2F81700E94C7
S11307C0D403C6958111C068D150B9F78C2FDF913D
S11307D0CF910895CF93DF93C82FD8E0D13049F05B
S11307E060E08C2F81700E943203C695811109C08C
S11307F009C061E08C2F81700E943203C695882362
S113080019F0C068D15051F78C2FDF91CF91089522
S1130810EF92FF920F931F93CF93DF93E82EEB0198
S1130820F42E0E947803209769F085E50E94D9038D
S11308308E01085F1F4F89910E94D903C017D10709
S1130840D1F703C08CEC0E94D903FF2021F08E2D38
S11308500E94EA0303C08E2D0E94D903DF91CF9139
S11308601F910F91FF90EF9008958FEF0E94D9038D
S11308700895DF92EF92FF920F931F93CF93DF932C
S1130880D82E8B010E94780381112BC080EF0E9427
S1130890D903E12CC0E40F2EF8EFFF2EF02DFC0E4F
S11308A081E00E94D403D82F81E00E94D4038823DE
S11308B019F0DD23D1F017C0D11124C0CD15E8F013
S11308C0F801808180FF11C0DC121AC00EC0C15033
S11308D0CF11E6CF0F5F1F4FCF2DF110DCCF8E2D40
S11308E01AC08FEF18C08EEF16C080E00E94D403A8
S11308F0F801908196959083EACFEC2ED1E002C066
S1130900EC2ED1E08D2F0E94D403F80190819695AE
S113091090689083DCCFDF91CF911F910F91FF906E
S1130920EF90DF90089540E00E940804089541E0AC
S11309300E9408040895CF93DF93CDB7DEB72997BB
S11309400FB6F894DEBF0FBECDBF87EE90E00E94D5
S11309502F090E9478038FEF8987BE016F5F7F4F55
S1130960CE0109960E948A0289858F3F31F485ED74
S113097090E00E942F0980E015C08E3F31F489EC8D
S113098090E00E942F0980E00DC0FE013196ACE991
S1130990B1E09E01275F3F4F81918D93E217F307EA
S11309A0D9F781E029960FB6F894DEBF0FBECDBF0C
S11309B0DF91CF9108951F920F920FB60F921124D9
S11309C08F939F93AF93BF9380913401909135019E
S11309D0A0913601B09137010196A11DB11D8093FC
S11309E0340190933501A0933601B0933701BF9140
S11309F0AF919F918F910F900FBE0F901F901895FC
S1130A001F920F920FB60F9211248F930FB6F89482
S1130A10A8958091600088618093600010926000C6
S1130A200FBE84E080932F018F910F900FBE0F9023
S1130A301F9018950F931F93CF93DF93CAE00CE98F
S1130A4011E0A89560E070E081E00E94C202D82F16
S1130A502FEF8EE994E2215080409040E1F700C0EE
S1130A60000069E471E0F80180810E94E402D11180
S1130A7002C0882371F0FFEF23EC89E0F15020409D
S1130A808040E1F700C00000C150D9F682E08093B5
S1130A902F01DF91CF911F910F910895F8946091E8
S1130AA03401709135018091360190913701789429
S1130AB0089598E288E10FB6F894A89580936000B1
S1130AC00FBE90936000A895E0E6F0E0808180641A
S1130AD080830895A8950FB6F894A8958091600036
S1130AE0886180936000109260000FBEE0E6F0E041
S1130AF080818F7B80830895FF920F931F93CF9300
S1130B00DF938823F9F0182FCCE4D1E00F2EFFE017
S1130B10FF2EF02D00E1109247010E946A05109209
S1130B2048018FB7F894F88209830A831B838FBF27
S1130B302FEF87EA91E6215080409040E1F700C012
S1130B400000E9CFDF91CF911F910F91FF9008959D
S1130B5087B18F7C87B988B1806388B9089584B1DF
S1130B608F6384B98AB180668AB987B18F6087B987
S1130B700895109285001092840087E08093890084
S1130B8080ED80938800E0E8F0E01082808180832B
S1130B90E1E8F0E080818A608083EFE6F0E0808124
S1130BA082608083089516BC8AEF87BD14BC84B527
S1130BB0826084BD85B5846085BDEEE6F0E0808109
S1130BC0826080830895CF92DF92EF92FF921F9309
S1130BD0CF93DF9316B1C82FD0E0FE01E050FF4F52
S1130BE080811823FE01EC5BFE4F8081811789F020
S1130BF0FE01EC5BFE4F10830E944E05FE01EE0FDA
S1130C00FF1FEE0FFF1FE45CFE4F6083718382833E
S1130C1093830E944E05FE01EE0FFF1FEE0FFF1F90
S1130C20E45CFE4FC080D180E280F380DC01CB0124
S1130C308C199D09AE09BF098897A105B105C8F0B3
S1130C40FE01EE5FFE4F8081811799F0FE01EE5F99
S1130C50FE4F10831095FE01E050FF4F8081FE018E
S1130C60E65CFE4F912F98239083C85CDE4F1827D3
S1130C701883DF91CF911F91FF90EF90DF90CF9079
S1130C800895833158F5643048F590E0FC01EE0F87
S1130C90FF1FE85FFE4F2081623009F4216035B107
S1130CA0322B35B935B1206C232325B9880F991F10
S1130CB0FC01E85FFE4F81819BB1982B9BB99BB1EE
S1130CC08F6989238BB988B1807F88B998B1E62F61
S1130CD0F0E0EC5FFE4F8081892B88B908951F9264
S1130CE00F920FB60F9211242F933F934F935F935C
S1130CF06F937F938F939F93AF93BF93EF93FF93E0
S1130D0080914B01837080934B0180912E018F5F02
S1130D1080932E01809147018130A9F480912E01A6
S1130D20882334F460914B018AE00E94410615C087
S1130D3060914B01E0914B01F0E0E45BFE4F808158
S1130D400E9441060AC060914B01E0914B01F0E022
S1130D50E45BFE4F80810E94410680914B018F5FCE
S1130D6080934B01FF91EF91BF91AF919F918F9130
S1130D707F916F915F914F913F912F910F900FBE93
S1130D800F901F9018950F931F93CF93DF93AC018F
S1130D90E62F99233CF451954195510981E08093C4
S1130DA0460102C0109246019A0136952795369560
S1130DB0279536952795A5ECB0E20E948F09EC01A2
S1130DC0D295C295CF70CD27DF70CD2728EE33E0C2
S1130DD0C29FC001C39F900DD29F900D1124481B48
S1130DE0590B9A013695279536952795ABE7B4E1CB
S1130DF00E948F098C011695079524E6209FC00157
S1130E00219F900D1124481B590B9A01ADECBCECA9
S1130E100E948F09969587959695879596958795BF
S1130E20BC01660F771F9C01220F331F220F331F53
S1130E30220F331F260F371F421B530BE23029F0BA
S1130E40E330C1F0E130C1F403C0CDE0D0E014C020
S1130E502097E1F401151105E9F01EC001151105F3
S1130E6011F40AE010E020914601222329F0CCE09D
S1130E70D0E002C0CEE0D0E09FB7F894ECE4F1E01B
S1130E80C0830183828343839FBF09C0CC30D105D3
S1130E9029F3E9CF0AE010E0CAE0D0E0E4CFDF9123
S1130EA0CF911F910F91089587E690E00E94F20878
S1130EB027E04AE250E06BE270E089E290E00E94B1
S1130EC0BE03789483EC91E00E942F0987E991E0B6
S1130ED00E942F090E949B04F82E811115C181E004
S1130EE080932F0180E090E00E94410987E791E020
S1130EF00E942F095BC08CE691E00E942F09C80173
S1130F000E94410988E691E00E942F0968E070E0A0
S1130F10C5010E94F60185E691E00E942F090F5F4A
S1130F201F4F28E0A20EB11C0C171D0721F700C1AA
S1130F308CE591E00E942F09C8010E94410985E5D2
S1130F4091E00E942F09BC2EED2E2881203129F436
S1130F5086E491E00E942F090BC0223229F48FE32A
S1130F6091E00E942F0904C087E391E00E942F09B9
S1130F708CE291E00E942F098B2D9E2D0E94AC02E1
S1130F80811105C083E291E00E942F0904C088E129
S1130F9091E00E942F098DE091E00E942F090F5FDC
S1130FA01F4F28968FEF800F8F1510F20E94AF0508
S1130FB00E94D3050E94B9050E94A80581E0809390
S1130FC048018FEF93EDE0E381509040E040E1F77A
S1130FD000C000000E945905CAE3D1E0FF24F39445
S1130FE00F2EF3E0EF2EF02D09E411E080912F0194
S1130FF00E947C0580E00E94E3058881882361F0DB
S11310001882809148018F5F809348018091480144
S1131010843011F4F092480180914801823009F43F
S11310205FC0833009F466C0813001F70E944E0529
S11310308090300190903101A0903201B090330142
S1131040DC01CB0188199909AA09BB09883E9340A0
S1131050A105B10578F10E944E05609330017093AB
S1131060310180933201909333010E941A056091FB
S113107048018091490190914A010E94C306A895B4
S113108080914A010E9470098AE091E00E942F0930
S1131090F80180810E94700987E091E00E942F0985
S11310A08091490190914A010E94410984E091E0B4
S11310B00E942F098091490190914A018D32F1E0FB
S11310C09F0714F0E0922F018233910514F4F092FB
S11310D04701893C91050CF489CF1092470186CFD2
S11310E0109247016091480188EC90E00E94C30689
S11310F0A8957CCF109247016091480182E390E06B
S11311000E94C306A89572CF90E00E94410987E728
S113111091E00E942F090F2EFCE9AF2EF1E0BF2EC3
S1131120F02DCFEFCF0DD0E0229601E010E0E3CE1A
S1131130CCE9D1E001E010E0FBCE1F920F920FB694
S11311400F9211242F938F939F93EF93FF9380918A
S1131150C0002091C6008871E0915201EF5FEF71E9
S113116090915101E91739F0E0935201F0E0EB5A04
S1131170FE4F208301C082E080935001FF91EF91E4
S11311809F918F912F910F900FBE0F901F901895E4
S11311901F920F920FB60F9211248F939F93EF9388
S11311A0FF939091540180915301981769F0E09155
S11311B05301EF5FEF71E0935301F0E0EB58FE4F02
S11311C080818093C60005C0E1ECF0E080818F7DD2
S11311D08083FF91EF919F918F910F900FBE0F909D
S11311E01F901895109254011092530110925201BD
S11311F010925101992324F422E02093C0009F7798
S11312009093C5008093C40088E98093C10086E070
S11312108093C2000895209154012F5F2F71909103
S113122053012917E1F3E22FF0E0EB58FE4F8083DE
S113123020935401E1ECF0E0808180628083089582
S1131240CF93DF93EC018881882331F021960E94AB
S11312500B0989918111FBCFDF91CF910895CF9331
S1131260DF93EC012196FC018491882339F00E94DC
S11312700B09FE01849121968111F9CFDF91CF9161
S11312800895CF93DF93CDB7DEB72A970FB6F894BE
S1131290DEBF0FBECDBF4AE0BE016F5F7F4F0E942D
S11312A09E090E9420092A960FB6F894DEBF0FBE4D
S11312B0CDBFDF91CF9108958F708A3010F0895C93
S11312C001C0805D0E940B090895CF93C82F8295B9
S11312D08F700E945C098C2F0E945C09CF91089545
S11312E00F931F93CF93DF93C7E0D0E0082F10E054
S11312F098010C2E02C0359527950A94E2F720FF39
S113130004C081E30E940B0903C080E30E940B091F
S1131310219770F7DF91CF911F910F910895A29FAC
S1131320B001B39FC001A39F700D811D1124911DB5
S1131330B29F700D811D1124911D0895BB274A3061
S113134031F4992322F4BDE2909581959F4F0C943A
S1131350AA09BB27FB015527AA27880F991FAA1F93
S1131360A41710F0A41B83955051B9F7A05DAA33BC
S113137008F0A95DA193009779F7B111B193119287
S1131380CB010C94C309DC01FC01672F7191772315
S1131390E1F7329704C07C916D9370836291AE172C
S10D13A0BF07C8F30895F894FFCFC7
S11313AA10201020010204083A600A002C602E4022
S11313BA1E00364036602A003E603E40000010009F
S11113CA0400200000403460042014000400DD
S9030000FC
