:100000000C94FF000C941C010C941C010C941C011A
:100010000C941C010C941C010C941C010C941C01EC
:100020000C941C010C941C010C941C010C94940560
:100030000C941C010C941C010C94CB060C941C0118
:100040000C941C010C941C010C94D5080C94000910
:100050000C941C010C941C010C941C010C941C01AC
:100060000C941C010C941C01445331385832305FFD
:1000700073746172745F6D6561733A2053686F7257
:10008000742043697263756974210D0020435243E3
:10009000204F2E4B2E200020435243204641494CF6
:1000A000200028203F20290028323229002831381A
:1000B0004229002831385329002000534E3A2000AD
:1000C0004352433A0046433A0020B043002064655F
:1000D0006369B0432C2000427573204572726F72C1
:1000E0000D0A004E6F2053656E736F7220666F7538
:1000F0006E640D0A000D0A5363616E6E696E6720AF
:1001000042757320666F7220445331385832300D77
:100110000A000D0A000D0A0020706F776572656491
:100120000D0A0065787465726E616C6C790070619F
:100130007261736974650020776869636820697308
:100140002000445331384232300044533138323287
:1001500000445331385332302F4453313832300059
:100160002069732061200053656E736F7223200035
:100170000D0A00203A20002320696E20427573206A
:100180003A0020445331385832302053656E736F33
:100190007228732920617661696C61626C653A0D21
:1001A0000A002D2D2D2D2D2D2D2D2D2D2D2D2D2DCF
:1001B0002D2D2D2D2D2D2D2D2D2D2D2D2D2D2D2D6F
:1001C0002D2D2D2D2D2D2D2D2D2D2D2D2D000D0ACF
:1001D0004453313858323020312D576972652D52D1
:1001E00065616465722044656D6F206279204D61A0
:1001F0007274696E2054686F6D61730D0A0011246A
:100200001FBECFEFD8E0DEBFCDBF11E0A0E0B1E070
:10021000ECE2F4E102C005900D92AA32B107D9F7E1
:1002200021E0AAE2B1E001C01D92AF39B207E1F7C7
:100230000E94A3070C94140A0C9400006115710528
:10024000A9F0FC01680F791F80E048E1219198E056
:10025000382F322730FF0CC084278695806826957A
:100260009150B1F7E617F70789F7089580E00895F0
:100270008695F5CFFB01418150E0542F44279081B2
:10028000492B9A01803191F44E7F440F551F440F42
:10029000551F440F551F96812CE030E0291B310972
:1002A000240F351F33230CF05AC002C055232CF401
:1002B000319521953109A1E001C0A0E0883211F00B
:1002C000823269F484818076803231F0803431F07A
:1002D000811105C0287F03C02C7F01C02E7FA9019A
:1002E000529542954F7045275F704527BA01660FBA
:1002F000771F440F551F440F551F440F551F640FA0
:10030000751F2F703327C9019695982F88279795C9
:100310008795322F2227330F820F931FA11114C00C
:100320009E5F892F9927869586959C01260F371FFA
:10033000C9018A5D9D4F8930974018F4822F932F11
:10034000089580ED97E00895892F992786958695E1
:100350009C01260F371F319521953109E9CFF9010D
:10036000F295E295EF70EF27FF70EF27BF01660F60
:10037000771FEE0FFF1FEE0FFF1FEE0FFF1F6E0F19
:100380007F1FA9014F705527CA019695982F88277E
:1003900097958795542F4427550F840F951FC0CFED
:1003A000EF92FF920F931F93CF93DF937B01042F64
:1003B000BC018EEB0E940A05002369F0E7010150A1
:1003C00010E00F5F1F4F0E0D1F1D0E94AC0489939C
:1003D000C017D107D1F769E070E0C7010E941E0184
:1003E000811183E0DF91CF911F910F91FF90EF90EA
:1003F0000895AF92BF92CF92DF92EF92FF920F9348
:100400001F93CF93DF935C017B016115710509F4A4
:100410004EC08C01C0E0D0E06B0181E0C81AD10869
:10042000209789F485EC90E00E946709F8018081AB
:100430000E949D0989EB90E00E946709F501808187
:100440008031E1F416C0CC16DD0609F04AC080EC1C
:1004500090E00E94670945C08BEB90E00E9467091D
:10046000F80180810E949D0989EB90E00E94670954
:1004700017C083EB90E00E94670912C0883229F40C
:100480008DEA90E00E9467090BC0823229F488EA65
:1004900090E00E94670904C082EA90E00E94670928
:1004A00021960F5F1F4FEC16FD0609F0B9CF68E0EB
:1004B00070E0C5010E941E01882329F087E990E0C1
:1004C0000E94670912C08CE890E00E9467090DC085
:1004D000F80180810E949D0989EB90E00E946709E4
:1004E000DFCFC130D105A1F7B7CFDF91CF911F91F9
:1004F0000F91FF90EF90DF90CF90BF90AF90089555
:100500000F931F93CF93DF93EC018B01B801888188
:100510000E94B004888381508D3F50F4F80180819F
:10052000883241F0803141F0823281F780E005C0AD
:1005300081E003C080E001C080E0DF91CF911F9196
:100540000F910895CF93DF93EC010E94EF03BE015A
:1005500084EB0E940A0581E00E944B04C82F0E9490
:10056000EF0381E0C11101C080E0DF91CF910895D8
:100570001F93CF93DF93182FEB010E94EF030E948C
:100580008D03882371F0113031F0BE0184E40E94A4
:100590000E0580E00BC0BE0184E40E940A0580E0E5
:1005A00005C088E690E00E94670982E0DF91CF9164
:1005B0001F910895EF92FF920F931F93CF93DF93B4
:1005C000CDB7DEB727970FB6F894DEBF0FBECDBF0D
:1005D0009C017B01473008F45EC089519C4F873FE6
:1005E0009A4208F05AC033232CF4319521953109F1
:1005F00001E001C000E010E06AE070E0C9010E9483
:10060000A80991E0910FE1E0F0E0EC0FFD1FE10F90
:10061000F11D17FDFA95805D8083262F372F192F46
:10062000121613064CF3002359F08DE2FE01E90F78
:10063000F11D97FDFA958183992364F420E025C08C
:100640008BE2FE01E90FF11D97FDFA958183F4CF4E
:10065000822F02C080E04EE221E0280F392F915016
:10066000E1E0F0E0EC0FFD1FE30FF11D3081F70139
:10067000E80FF11D3083911106C08E5FF701E20F84
:10068000F11D4083E9CF99231CF7F701E20FF11D1B
:10069000108280E003C081E001C081E027960FB6A0
:1006A000F894DEBF0FBECDBFDF91CF911F910F91A8
:1006B000FF90EF900895EF92FF920F931F93CF93C7
:1006C000DF93CDB7DEB729970FB6F894DEBF0FBE24
:1006D000CDBF082F7B0149E0BE016F5F7F4F80E0F7
:1006E00090E00E94D001182F811109C0BE016F5FF8
:1006F0007F4F802F0E943A01F70191838083812FE1
:1007000029960FB6F894DEBF0FBECDBFDF91CF9113
:100710001F910F91FF90EF900895E0919301F09158
:10072000940190818091920189230895E091900134
:10073000F0919101908180919201892B8083E091C9
:100740009501F0919601908180919201892B80838F
:100750000895CF93DF93C82FDFB7F894E091950108
:10076000F0919601908180919201892B80838AE09B
:100770008A95F1F700C0CC2351F0E0919501F091FA
:10078000960190818091920180958923808385E4F0
:100790008A95F1F70000E0919301F0919401908126
:1007A00080919201892309F4C0E085EE8A95F1F7E2
:1007B0000000E0919501F091960190818091920165
:1007C00080958923808361110E949603DFBF85E3B2
:1007D0008A95F1F700008C2FDF91CF910895E09179
:1007E0009001F091910190818091920180958923EF
:1007F0008083E0919501F091960190818091920122
:10080000892B80838FE797E00197F1F700C0000004
:100810002FB7F894E0919501F09196019081809125
:100820009201809589238083EFEFF0E03197F1F713
:1008300000C00000E0919301F091940190818091BB
:1008400092012FBFEFE7F6E03197F1F700C000000B
:10085000E0919301F0919401308120919201232342
:1008600011F08923089581E00895509396014093F3
:1008700095017093910160939001909394018093FE
:10088000930181E001C0880F2A95EAF780939201D5
:100890000E94EF03089560E081700E94A90308950B
:1008A000CF93DF93C82FD8E08C2F81700E944B0428
:1008B000C6958111C068D150B9F78C2FDF91CF91C7
:1008C0000895CF93DF93C82FD8E0D13049F060E08E
:1008D0008C2F81700E94A903C695811109C009C09F
:1008E00061E08C2F81700E94A903C695882319F0BE
:1008F000C068D15051F78C2FDF91CF910895EF92BE
:10090000FF920F931F93CF93DF93E82EEB01F42E0A
:100910000E94EF03209769F085E50E9450048E0144
:10092000085F1F4F89910E945004C017D107D1F76B
:1009300003C08CEC0E945004FF2021F08E2D0E94F9
:10094000610403C08E2D0E945004DF91CF911F914E
:100950000F91FF90EF9008958FEF0E94500408953B
:10096000DF92EF92FF920F931F93CF93DF93D82ED6
:100970008B010E94EF0381112BC080EF0E94500475
:10098000E12CC0E40F2EF8EFFF2EF02DFC0E81E0DD
:100990000E944B04D82F81E00E944B04882319F059
:1009A000DD23D1F017C0D11124C0CD15E8F0F80136
:1009B000808180FF11C0CD111AC00EC0C150FC1241
:1009C000E6CF0F5F1F4FCF2DF110DCCF8E2D1AC059
:1009D0008FEF18C08EEF16C080E00E944B04F80124
:1009E000908196959083EACFEC2ED1E002C0EC2E58
:1009F000D1E08D2F0E944B04F8019081969590686C
:100A00009083DCCFDF91CF911F910F91FF90EF90FA
:100A1000DF90089540E00E947F04089541E00E9425
:100A20007F040895CF93DF93CDB7DEB729970FB634
:100A3000F894DEBF0FBECDBF85EF90E00E9467093E
:100A40000E94EF038FEF8987BE016F5F7F4FCE015A
:100A500009960E94800289858F3F31F483EE90E0F1
:100A60000E94670980E015C08E3F31F487ED90E069
:100A70000E94670980E00DC0FE013196A7E9B1E050
:100A80009E01275F3F4F81918D932E173F07D9F726
:100A900081E029960FB6F894DEBF0FBECDBFDF917F
:100AA000CF9108950F931F93CF93DF93CDB7DEB708
:100AB0002A970FB6F894DEBF0FBECDBF8C010E94FF
:100AC00079098DEC90E00E9467094AE0BE016F5FF2
:100AD0007F4FC8010E94DA02CE0101960E94580998
:100AE00089EC90E00E9467092A960FB6F894DEBF61
:100AF0000FBECDBFDF91CF911F910F91089560E0A0
:100B000070E081E00E94B8022FEF8EE994E221505C
:100B100080409040E1F700C0000064E471E0809103
:100B200097010E945B0308951F920F920FB60F92D8
:100B300011248F939F93AF93BF9380913001909135
:100B40003101A0913201B09133010196A11DB11D77
:100B50008093300190933101A0933201B09333011F
:100B6000BF91AF919F918F910F900FBE0F901F90EB
:100B70001895EF92FF920F931F93CF93DF93FC0191
:100B80002081222379F18C01C7E4D1E00F2EFFE010
:100B9000EF2EF02D6894FF24F4F88FB7F894E882D4
:100BA000F982FA82F80190819B838FBF8081823025
:100BB00061F40E947F0580914401909145018C323F
:100BC00091401CF4F80110820DC0FFEF23ED80E38B
:100BD000F15020408040E1F700C00000F801808122
:100BE0008111DBCFDF91CF911F910F91FF90EF909B
:100BF0000895F89460913001709131018091320133
:100C0000909133017894089587B18F7C87B988B12A
:100C1000806388B9089584B18F6384B98AB180668E
:100C20008AB987B18F6087B90895109285001092B4
:100C3000840087E08093890080ED80938800E0E85D
:100C4000F0E0108280818083E1E8F0E080818A60BA
:100C50008083EFE6F0E0808182608083089516BC97
:100C60008AEF87BD14BC84B5826084BD85B584607D
:100C700085BDEEE6F0E08081826080830895CF92AA
:100C8000DF92EF92FF921F93CF93DF9316B1C82F9D
:100C9000D0E0FE01E050FF4F80811823FE01E05CB0
:100CA000FE4F8081181789F0FE01E05CFE4F108333
:100CB0000E94F905FE01EE0FFF1FEE0FFF1FE85C1B
:100CC000FE4F60837183828393830E94F905FE0146
:100CD000EE0FFF1FEE0FFF1FE85CFE4FC080D180BC
:100CE000E280F380DC01CB018C199D09AE09BF09BC
:100CF0008897A105B105C8F0FE01EE5FFE4F808127
:100D0000181799F0FE01EE5FFE4F10831095FE015B
:100D1000E050FF4F8081FE01EA5CFE4F912F982347
:100D20009083CC5CDE4F18271883DF91CF911F9101
:100D3000FF90EF90DF90CF900895813158F56430A7
:100D400048F590E0FC01EE0FFF1FE85FFE4F2081A9
:100D5000623009F4216035B1322B35B935B1206CE0
:100D6000232325B9880F991FFC01E85FFE4F81817D
:100D70009BB1982B9BB99BB18F6989238BB988B1A3
:100D8000807F88B998B1E62FF0E0EC5FFE4F80815C
:100D9000892B88B908951F920F920FB60F921124D4
:100DA0002F933F934F935F936F937F938F939F9373
:100DB000AF93BF93EF93FF9380914601837080932D
:100DC000460180912A018F5F80932A01809146011C
:100DD000811113C080914201882379F080914301F1
:100DE000813059F480912A01882324F48BE0809388
:100DF000470103C08AE08093470160914601E0917A
:100E00004601F0E0E95BFE4F80810E949D068091E3
:100E100046018F5F80934601FF91EF91BF91AF91A3
:100E20009F918F917F916F915F914F913F912F9102
:100E30000F900FBE0F901F901895FF920F931F9366
:100E4000CF93DF93FC01F62E9C01369527953695BE
:100E5000279536952795A5ECB0E20E94BC09EC01D8
:100E6000D295C295CF70CD27DF70CD2728EE33E025
:100E7000C29FC001C39F900DD29F900D1124AF015E
:100E8000481B590BFF2314F4CBE0D0E09A013695B0
:100E9000279536952795ABE7B4E10E94BC098C01F4
:100EA0001695079524E6209FC001219F900D1124DF
:100EB000481B590B9A01ADECBCEC0E94BC099695FD
:100EC00087959695879596958795BC01660F771FB0
:100ED0009C01220F331F220F331F220F331F260FB7
:100EE000371FBA01621B730B9B0172E0F71639F0D2
:100EF00043E0F41691F061E0F61216C003C0CDE0B5
:100F0000D0E012C00115110519F4209749F00CC06A
:100F1000209751F4CAE0D0E007C0CEE0D0E004C092
:100F2000CAE0D0E00AE010E09FB7F894E7E4F1E00F
:100F3000C0830183828323839FBFDF91CF911F9161
:100F40000F91FF90089587E690E00E942A0927E01C
:100F50004AE250E06BE270E089E290E00E943504E2
:100F600078948EEC91E00E94670982EA91E00E94F9
:100F700067090E941205182F8111FBC081E0809340
:100F80002B0180E090E00E94790982E891E00E94C4
:100F900067095CC087E791E00E946709C7010E946A
:100FA000790983E791E00E94670968E070E0C60173
:100FB0000E94F90180E791E00E9467092FEFE21A91
:100FC000F20A88E0C80ED11CCE15DF0519F7E6C07D
:100FD00087E691E00E946709C7010E94790980E6CF
:100FE00091E00E946709CC2EDD2E8881803129F4A2
:100FF00081E591E00E9467090BC0823229F48AE4FE
:1010000091E00E94670904C082E491E00E946709B0
:1010100087E391E00E9467098C2D9D2D0E94A2021A
:10102000811105C08EE291E00E94670904C083E24D
:1010300091E00E94670988E191E00E9467090F5FD3
:101040009FEFE91AF90A28961013C2CF0E940B06E7
:101050000E942F060E9415060E94040681E08093DC
:1010600043012FEF83ED90E3215080409040E1F762
:1010700000C00000C6E3D1E011E002E08BE291E0A5
:101080000E94B90580E00E943F068881882361F0B4
:101090001882809143018F5F8093430180914301C7
:1010A000843011F41093430180914301823009F49C
:1010B00052C0833009F456C0813001F70E94F9050F
:1010C000C0902C01D0902D01E0902E01F0902F01C6
:1010D000DC01CB018C199D09AE09BF09883E934004
:1010E000A105B10510F10E94F90560932C017093E0
:1010F0002D0180932E0190932F010E947F05609116
:10110000430180914401909145010E941D0785E1B2
:1011100091E00E94670980914401909145010E94ED
:10112000520582E191E00E9467098091440190910B
:1011300045018D3221E0920714F000932B018A3F84
:10114000910514F410934201853091400CF496CF30
:101150001092420193CF6091430184E091E00E949C
:101160001D078CCF609143018AEF90E00E941D071C
:1011700085CF90E00E94790982E891E00E9467099A
:101180000F2EF7E9CF2EF1E0DF2EF02DCFEFC10FBC
:10119000D0E02296EE24E394F12CFCCEC7E9D1E016
:1011A000EE24E394F12C00E013CF1F920F920FB6C0
:1011B0000F9211242F938F939F93EF93FF9380911E
:1011C000C0002091C6008871E0914D01EF5FEF7182
:1011D00090914C01E91739F0E0934D01F0E0E05BAC
:1011E000FE4F208301C082E080934B01FF91EF917D
:1011F0009F918F912F910F900FBE0F901F90189578
:101200001F920F920FB60F9211248F939F93EF931B
:10121000FF9390914F0180914E01981769F0E091F2
:101220004E01EF5FEF71E0934E01F0E0E059FE4FA9
:1012300080818093C60005C0E1ECF0E080818F7D65
:101240008083FF91EF919F918F910F900FBE0F9030
:101250001F90189510924F0110924E0110924D015F
:1012600010924C01992324F422E02093C0009F7730
:101270009093C5008093C40088E98093C10086E004
:101280008093C200089520914F012F5F2F7190919C
:101290004E012917E1F3E22FF0E0E059FE4F808381
:1012A00020934F01E1ECF0E080818062808308951B
:1012B000CF93DF93EC018881882331F021960E943F
:1012C000430989918111FBCFDF91CF910895CF938D
:1012D000DF93EC012196FC018491882339F00E9470
:1012E0004309FE01849121968111F9CFDF91CF91BD
:1012F0000895CF93DF93CDB7DEB72A970FB6F89452
:10130000DEBF0FBECDBF4AE0BE016F5F7F4F0E94C0
:10131000DF090E9458092A960FB6F894DEBF0FBE67
:10132000CDBFDF91CF9108958F708A3010F0895C26
:1013300001C0805D0E9443090895CF93C82F829514
:101340008F700E9494098C2F0E949409CF91089568
:1013500097FB072E16F4009407D077FD09D00E9462
:10136000CB0907FC05D03EF4909581959F4F0895D9
:10137000709561957F4F0895A29FB001B39FC00102
:10138000A39F700D811D1124911DB29F700D811DB1
:101390001124911D0895AA1BBB1B51E107C0AA1F70
:1013A000BB1FA617B70710F0A61BB70B881F991F06
:1013B0005A95A9F780959095BC01CD010895BB275A
:1013C0004A3031F4992322F4BDE2909581959F4FE4
:1013D0000C94EB09BB27FB015527AA27880F991FFF
:1013E000AA1FA41710F0A41B83955051B9F7A05D54
:1013F000AA3308F0A95DA193009779F7B111B193D1
:101400001192CB010C94040ADC01FC01672F71914D
:101410007723E1F7329704C07C916D9370836291DA
:0C142000AE17BF07C8F30895F894FFCF83
:10142C0010201020010204083A600A002C602E40A3
:10143C001E00364036602A003E603E400000100020
:0A144C00040020000040346004207A
:00000001FF
