:1000000012C02CC02BC019C429C028C0DAC226C017
:1000100025C024C023C022C021C020C01FC01EC0D4
:100020001DC01CC01BC011241FBECFE5D4E0DEBF25
:10003000CDBF10E0A0E6B0E0E8E8FBE002C005902C
:100040000D92AE37B107D9F720E0AEE7B0E001C0BE
:100050001D92A33BB207E1F7C2D494C5D1CF61157D
:100060007105B1F0FC01680F791F80E058E048E1AC
:100070002191952F322F382730FF0CC08427869589
:10008000806826959150B1F7E617F70789F708952C
:1000900080E008958695F5CFFB01418150E0542F13
:1000A00044279081492B9A01803191F44E7F440F6F
:1000B000551F440F551F440F551F96812CE030E00B
:1000C000291B3109240F351F33230CF05BC002C0FC
:1000D00055232CF4319521953109A1E001C0A0E010
:1000E000883211F0823269F484818076803231F076
:1000F000803431F0811105C0287F03C02C7F01C0FE
:100100002E7FA901529542954F7045275F70452774
:10011000BA01660F771F440F551F440F551F440F38
:10012000551F640F751F2F703327C9019695982F9F
:10013000882797958795322F2227330F820F931F99
:10014000A11115C0AC015E5F452F55274695469518
:100150009B01240F351FC9018A5D9D4F893097404F
:1001600018F4822F932F089580ED97E00895892F3A
:100170009927869586959B01280F391F31952195E2
:100180003109E9CFF901F295E295EF70EF27FF70A1
:10019000EF27BF01660F771FEE0FFF1FEE0FFF1F48
:1001A000EE0FFF1F6E0F7F1FA9014F705527CA0169
:1001B0009695982F882797958795542F4427550F04
:1001C000840F951FBFCFEF92FF920F931F93CF9392
:1001D000DF937B01042FBC018EEBEDD1002361F096
:1001E000E701015010E00F5F1F4F0E0D1F1D8CD156
:1001F0008993C017D107D9F769E070E0C7012FDFF5
:10020000811183E0DF91CF911F910F91FF90EF90CB
:1002100008950F931F93CF93DF93EC018B01B801E7
:10022000888175D1888381508D3F50F4F801908189
:10023000983241F0903141F0923289F780E005C068
:1002400081E003C080E001C080E0DF91CF911F9189
:100250000F9108950F931F93CF93C82F8B01A4D0B4
:1002600043D0882361F0C13029F0B80184E4A6D1DD
:1002700080E006C0B80184E49ED180E001C082E045
:10028000CF911F910F910895EF92FF920F931F93BB
:10029000CF93DF93CDB7DEB729970FB6F894DEBFC3
:1002A0000FBECDBF082F7B0149E0BE016F5F7F4FBE
:1002B00080E090E088DF182F811108C0BE016F5FD9
:1002C0007F4F802FE9DEF70191838083812F29966C
:1002D0000FB6F894DEBF0FBECDBFDF91CF911F9157
:1002E0000F91FF90EF900895E091A700F091A80082
:1002F00090818091A60089230895E091A400F09157
:10030000A50090818091A600892B8083E091A900AF
:10031000F091AA0090818091A600892B8083089596
:10032000CF93DF93C82FDFB7F894E091A900F09145
:10033000AA0090818091A600892B808385E08A9510
:10034000F1F70000CC2351F0E091A900F091AA0050
:1003500020819091A60090959223908380E28A95C7
:10036000F1F7E091A700F091A80020819091A600FC
:10037000922309F4C0E085E78A95F1F70000E09147
:10038000A900F091AA0020819091A6009095922357
:1003900090836111B2DFDFBF8AE18A95F1F700C077
:1003A0008C2FDF91CF910895E091A400F091A500EA
:1003B00090818091A600809589238083E091A90097
:1003C000F091AA0090818091A600892B80838FEB09
:1003D00093E00197F1F700C000002FB7F894E09187
:1003E000A900F091AA0090818091A60080958923B0
:1003F00080839AEA9A95F1F700C0E091A700F09106
:10040000A80030818091A6002FBFEFE3F3E0319781
:10041000F1F700C00000E091A700F091A800208152
:100420009091A600922311F08323089581E008950E
:100430005093AA004093A9007093A5006093A40074
:100440009093A8008093A70081E001C0880F2A95AF
:10045000EAF78093A600A8DF089560E0817060DF6E
:100460000895CF93DF93C82FD8E08C2F8170F5DFEC
:10047000C6958111C068D150C1F78C2FDF91CF9103
:100480000895CF93DF93C82FD8E0D13041F060E0DA
:100490008C2F817045DFC695811108C008C061E0CE
:1004A0008C2F81703DDFC695882319F0C068D1502C
:1004B00061F78C2FDF91CF910895EF92FF920F9308
:1004C0001F93CF93DF93E82EEB01F42E6DDF20977F
:1004D00059F085E5C6DF8E01085F1F4F8991C1DFA6
:1004E000C017D107D9F702C08CECBBDFFF2019F091
:1004F0008E2DC7DF02C08E2DB4DFDF91CF911F910B
:100500000F91FF90EF9008958FEFABDF0895DF928A
:10051000EF92FF920F931F93CF93DF93D82E8B010F
:1005200043DF811128C080EF9CDFE12CC0E40F2E57
:10053000F8EFFF2EF02DFC0E81E08FDFD82F81E049
:100540008CDF882319F0DD23D1F017C0D11123C02F
:10055000CD15E0F0F801808180FF11C0DC1219C0D8
:100560000EC0C150CF11E8CF0F5F1F4FCF2DF1103C
:10057000DECF8E2D18C08FEF16C08EEF14C080E036
:100580006CDFF801908196959083EBCFEC2ED1E053
:1005900002C0EC2ED1E08D2F60DFF801908196959E
:1005A00090689083DECFDF91CF911F910F91FF90E4
:1005B000EF90DF90089540E080DF089541E07DDF17
:1005C00008951F920F920FB60F9211248F939F934D
:1005D000AF93BF938091840090918500A091860095
:1005E000B09187000196A11DB11D80938400909366
:1005F0008500A0938600B0938700BF91AF919F9133
:100600008F910F900FBE0F901F9018950F931F930F
:10061000CF93DF93CAE00BEA10E0A89560E070E0AA
:1006200081E018DED82F2FE78FE492E1215080403F
:100630009040E1F700C0000066E670E0F8018081BC
:1006400023DED11102C0882371F0FFEF21EE84E098
:10065000F15020408040E1F700C00000C150E9F6B1
:1006600082E080937F00DF91CF911F910F910895D9
:10067000F89460918400709185008091860090913B
:100680008700789408958FE181BD8FE081BDA895A2
:100690000895A89581B5886181BD11BC0895FF9228
:1006A0000F931F93CF93DF938823E9F0182FC0EAAD
:1006B000D0E00F2EFFE0FF2EF02D00E19598E9DF4E
:1006C00010929E008FB7F894F88209830A831B83E7
:1006D0008FBF2FEF83ED90E3215080409040E1F7F2
:1006E00000C00000EBCFDF91CF911F910F91FF90E1
:1006F000089595988D9A089584B3887F84BB85B3B7
:10070000876085BB089587B38FEF87BB81B38F6008
:1007100081BB08951DBC1CBC83E08BBD88EE8ABDE7
:100720001FBC8FB58FBD8EB58A608EBD89B78061C5
:1007300089BF089514BC8DE783BD15BC85B588605D
:1007400085BD85B5866085BD89B7806889BF0895F8
:10075000CF92DF92EF92FF921F93CF93DF9313B369
:10076000C82FD0E0FE01E05AFF4F80811823FE0120
:10077000E656FF4F8081811781F0FE01E656FF4F5C
:10078000108376DFFE01EE0FFF1FEE0FFF1FE25713
:10079000FF4F60837183828393836ADFFE01EE0FD4
:1007A000FF1FEE0FFF1FE257FF4FC080D180E28096
:1007B000F380DC01CB018C199D09AE09BF09889734
:1007C000A105B105C8F0FE01ED59FF4F80818117E9
:1007D00099F0FE01ED59FF4F10831095FE01E05A8C
:1007E000FF4F8081FE01E557FF4F912F98239083A3
:1007F000C857DF4F18271883DF91CF911F91FF90C3
:10080000EF90DF90CF9008958131B0F46430A0F480
:1008100092B39F6092BBE82FF0E0E459FF4F8081D4
:1008200088BB623009F4C39A92B3E62FF0E0E8592E
:10083000FF4F8081892382BB08951F920F920FB6CC
:100840000F9211242F933F934F935F936F937F9356
:100850008F939F93AF93BF93EF93FF9380919F00EC
:10086000837080939F0080917E008F5F80937E00D5
:1008700080919F00811113C080919D00813079F497
:1008800080919E00813059F480917E00882324F469
:100890008BE08093A00003C08AE08093A000609169
:1008A0009F00E0919F00F0E0E056FF4F8081ACDFB9
:1008B00080919F008F5F80939F00FF91EF91BF9188
:1008C000AF919F918F917F916F915F914F913F91E8
:1008D0002F910F900FBE0F901F901895FF920F93BE
:1008E0001F93CF93DF93FC01F62E9C01369527953D
:1008F0003695279536952795A5ECB0E237D1EC01D2
:10090000D295C295CF70CD27DF70CD2728EE33E08A
:10091000C29FC001C39F900DD29F900D1124AF01C3
:10092000481B590BFF2314F4CBE0D0E09A01369515
:10093000279536952795ABE7B4E118D18C0116952C
:10094000079524E6209FC001219F900D1124481B8C
:10095000590B9A01ADECBCEC09D19695879596950B
:10096000879596958795BC01660F771F9C01220F8E
:10097000331F220F331F220F331F260F371F421B37
:10098000530B22E0F21639F023E0F21691F021E049
:10099000F21216C003C0CDE0D0E012C0011511055F
:1009A00019F4209749F00CC0209751F4CAE0D0E028
:1009B00007C0CEE0D0E004C0CAE0D0E00AE010E01A
:1009C0009FB7F894E0EAF0E0C08301838283438319
:1009D0009FBFDF91CF911F910F91FF900895CF930B
:1009E000DF93CDB7DEB729970FB6F894DEBF0FBE01
:1009F000CDBF27E041E350E062E370E080E390E0A8
:100A000017DD7894D1DC8FEF8987BE016F5F7F4F50
:100A1000CE010996FEDB89858E5F823008F4A2C084
:100A2000FE013196ABEAB0E0CE01099621912D93FB
:100A3000E817F907D9F767DE7DDE6CDE5DDE59DE8B
:100A400081E080939E002FEF89E698E1215080405D
:100A50009040E1F700C0000004B603FE08C084B770
:100A6000877F84BF16DE84E080937F0001C00BDEA9
:100A70000BE810E0FF24F3940F2EF3E0EF2EF02D9F
:100A8000A89580917F000BDE80E062DEF801808116
:100A9000882361F0108280919E008F5F80939E007A
:100AA00080919E00843011F4F0929E0080919E000F
:100AB000823009F447C0833009F44CC0813001F71B
:100AC000D7DD8090800090908100A0908200B0904F
:100AD0008300DC01CB0188199909AA09BB09883E6A
:100AE0009340A105B10590F0C3DD60938000709341
:100AF0008100809382009093830088DD60919E0046
:100B00008091660090916700E9DEA895809166006B
:100B1000909167008D3221E0920714F0E0927F00FF
:100B20008A3F91051CF4F0929D00959A8091660091
:100B300090916700853091400CF4A2CF10929D00F7
:100B400095989ECF60919E0084E091E0C7DE9598D5
:100B5000A89596CF60919E008AEF90E0BFDE9598B1
:100B6000A8958ECF81E080937F0065CFA29FB001D2
:100B7000B39FC001A39F01D0B29F700D811D1124AE
:080B8000911D0895F894FFCFC8
:100B8800010204010204E600FBFDFEF7D7116775B8
:0E0B9800B1F4F651F7F50080204004E622008B
:00000001FF
