:1000000012C02CC02BC038C129C028C028C026C0AF
:1000100025C024C023C022C021C020C01FC01EC0D4
:100020001DC01CC01BC011241FBECFE5D4E0DEBF25
:10003000CDBF10E0A0E6B0E0E8E1F5E002C0059039
:100040000D92AC37B107D9F720E0ACE7B0E001C0C2
:100050001D92A23AB207E1F7E1D15CC2D1CF1F9263
:100060000F920FB60F9211248F939F93AF93BF936C
:100070008091820090918300A0918400B0918500CE
:100080000196A11DB11D8093820090938300A093DF
:100090008400B0938500BF91AF919F918F910F9095
:1000A0000FBE0F901F901895F89460918200709188
:1000B000830080918400909185007894089581B5A3
:1000C000876081BD81B5886181BD81B5886081BD52
:1000D000A8950895A89581B5886181BD81B5877F70
:1000E00081BD0895FF920F931F93CF93DF938823D1
:1000F000E1F0182FCEE9D0E00F2EFFE0FF2EF02D1B
:1001000000E1E8DF10929C008FB7F894F882098331
:100110000A831B838FBF2FEF83ED90E32150804034
:100120009040E1F700C00000ECCFDF91CF911F912C
:100130000F91FF90089584B3887F84BB85B3876057
:1001400085BB089587B38FEF87BB81B38F6081BB79
:1001500008951DBC1CBC83E08BBD88EE8ABD1FBC0E
:100160008FB58FBD8EB58A608EBD89B7806189BF1E
:10017000089514BC8DE783BD15BC85B5886085BD29
:1001800085B5866085BD89B7806889BF0895CF929F
:10019000DF92EF92FF921F93CF93DF9313B3C82F99
:1001A000D0E0FE01E05AFF4F80811823FE01E8569F
:1001B000FF4F8081811781F0FE01E856FF4F1083C9
:1001C00073DFFE01EE0FFF1FEE0FFF1FE457FF4F1F
:1001D000608371838283938367DFFE01EE0FFF1FCD
:1001E000EE0FFF1FE457FF4FC080D180E280F38005
:1001F000DC01CB018C199D09AE09BF098897A105C7
:10020000B105C8F0FE01ED59FF4F8081811799F0CB
:10021000FE01ED59FF4F10831095FE01E05AFF4F8C
:100220008081FE01E757FF4F912F98239083CA5793
:10023000DF4F18271883DF91CF911F91FF90EF9028
:10024000DF90CF9008958131B0F46430A0F492B380
:100250009F6092BBE82FF0E0E659FF4F808188BB9A
:10026000623009F4C39A92B3E62FF0E0EA59FF4FE7
:100270008081892382BB08951F920F920FB60F923F
:1002800011242F933F934F935F936F937F938F939B
:100290009F93AF93BF93EF93FF9380919D008370E3
:1002A00080939D0080917C008F5F80937C00809183
:1002B0009D00811113C080919B00813079F4809161
:1002C0009C00813059F480917C00882324F48BE0D9
:1002D00080939E0003C08AE080939E0060919D0001
:1002E000E0919D00F0E0E256FF4F8081ACDF80910D
:1002F0009D008F5F80939D00FF91EF91BF91AF9123
:100300009F918F917F916F915F914F913F912F912D
:100310000F900FBE0F901F901895FF920F931F9391
:10032000CF93DF93FC01F62E9C01369527953695E9
:10033000279536952795A5ECB0E2E0D0EC01D29553
:10034000C295CF70CD27DF70CD2728EE33E0C29F56
:10035000C001C39F900DD29F900D1124AF01481B87
:10036000590BFF2314F4CBE0D0E09A013695279582
:1003700036952795ABE7B4E1C1D08C01169507956A
:1003800024E6209FC001219F900D1124481B590B8A
:100390009A01ADECBCECB2D0969587959695879571
:1003A00096958795BC01660F771F9C01220F331F1E
:1003B000220F331F220F331F260F371F421B530BF1
:1003C00022E0F21639F023E0F21691F021E0F21269
:1003D00016C003C0CDE0D0E012C00115110519F41C
:1003E000209749F00CC0209751F4CAE0D0E007C034
:1003F000CEE0D0E004C0CAE0D0E00AE010E09FB751
:10040000F894EEE9F0E0C0830183828343839FBFC9
:10041000DF91CF911F910F91FF90089504B603FED5
:1004200007C084B7877F84BF55DE84E080937D005A
:10043000789488DE9EDE8DDE7EDE81E080939C00F7
:100440002FEF89E698E1215080409040E1F700C00D
:10045000000035DEC9E8D0E011E080917D0042DE89
:1004600080E095DE8881882361F0188280919C006D
:100470008F5F80939C0080919C00843011F41093D6
:100480009C00A89580919C00823051F1833079F1D5
:10049000813019F709DEC0907E00D0907F00E09097
:1004A0008000F0908100DC01CB018C199D09AE0920
:1004B000BF09883E9340A105B10578F0F5DD609352
:1004C0007E0070937F008093800090938100609104
:1004D0009C0086EE90E021DFA89510939B00BDCF95
:1004E00060919C0084E091E018DFA895B6CF609100
:1004F0009C008AEF90E011DFA895AFCFA29FB001DA
:10050000B39FC001A39F01D0B29F700D811D112424
:08051000911D0895F894FFCF3E
:10051800010204010204FBFDFEF7D7116775B1F46F
:0C052800F651F7F50080204004E62200A8
:00000001FF
