:100000000C943B010C9458010C9458010C94580129
:100010000C9458010C9458010C9458010C945801FC
:100020000C9458010C9458010C9458010C945801EC
:100030000C9458010C9458010C9458010C945801DC
:100040000C9458010C9458010C945F050C948A058B
:100050000C9458010C9458010C9458010C945801BC
:100060000C9458010C945801445331385832305F85
:1000700073746172745F6D6561733A2053686F7257
:10008000742043697263756974210D0020435243E3
:10009000204F2E4B2E200020435243204641494CF6
:1000A000200028203F20290028323229002831381A
:1000B0004229002831385329002000534E3A2000AD
:1000C0004352433A0046433A0020B043002064655F
:1000D0006369B0432C2000427573204572726F72C1
:1000E0000D0A004E6F2053656E736F7220666F7538
:1000F0006E640D0A000D0A5363616E6E696E6720AF
:1001000042757320666F7220445331385832300D77
:100110000A000D0A000D0A000D0A74656D703E326A
:100120003435000D0A74656D703E323430000D0AAE
:1001300074656D703E323335000D0A74656D703E26
:10014000323330000D0A5468657265206973206F80
:100150006E6C79206F6E652073656E736F72202DE3
:100160003E2044656D6F206F66202244533138581D
:1001700032305F726561645F6465636963656C7387
:100180006975735F73696E676C65223A0D0A0020AA
:10019000706F77657265640D0A0065787465726EBC
:1001A000616C6C79007061726173697465002077AD
:1001B00068696368206973200044533138423230E3
:1001C0000044533138323200445331385332302FE7
:1001D0004453313832300020697320612000536568
:1001E0006E736F722320000D0A00203A2000232036
:1001F000696E20427573203A0020445331385832DA
:10020000302053656E736F7228732920617661699F
:100210006C61626C653A0D0A002D2D2D2D2D2D2D52
:100220002D2D2D2D2D2D2D2D2D2D2D2D2D2D2D2DFE
:100230002D2D2D2D2D2D2D2D2D2D2D2D2D2D2D2DEE
:100240002D2D2D2D000D0A445331385832302031D8
:100250002D576972652D5265616465722044656D24
:100260006F206279204D617274696E2054686F6DE1
:1002700061730D0A000011241FBECFEFD8E0DEBF6E
:10028000CDBF11E0A0E0B1E0ECEAFFE002C00590D4
:100290000D92A030B107D9F721E0A0E0B1E001C094
:1002A0001D92A435B207E1F70E9432060C94D407E0
:1002B0000C94000061157105B1F0FC01680F791F05
:1002C00080E058E048E12191952F322F382730FF08
:1002D0000CC084278695806826959150B1F7E61763
:1002E000F70789F7089580E008958695F5CFFB011B
:1002F000418150E0542F44279081492B9A0180314D
:1003000091F44E7F440F551F440F551F440F551F46
:1003100096812CE030E0291B3109240F351F33234F
:100320000CF05BC002C055232CF4319521953109A6
:10033000A1E001C0A0E0883211F0823269F484812A
:100340008076803231F0803431F0811105C0287F11
:1003500003C02C7F01C02E7FA901529542954F709A
:1003600045275F704527BA01660F771F440F551F59
:10037000440F551F440F551F640F751F2F703327EF
:10038000C9019695982F882797958795322F222710
:10039000330F820F931FA11115C0AC015E5F452F73
:1003A0005527469546959B01240F351FC9018A5D47
:1003B0009D4F8930974018F4822F932F089580ED38
:1003C00097E00895892F9927869586959B01280F98
:1003D000391F319521953109E9CFF901F295E2955F
:1003E000EF70EF27FF70EF27BF01660F771FEE0F4B
:1003F000FF1FEE0FFF1FEE0FFF1F6E0F7F1FA901E4
:100400004F705527CA019695982F882797958795FD
:10041000542F4427550F840F951FBFCFEF92FF92A3
:100420000F931F93CF93DF937B01042FBC018EEBBF
:100430000E945705002369F0E701015010E00F5FAB
:100440001F4F0E0D1F1D0E94F9048993C017D1077D
:10045000D1F769E070E0C7010E945A01811183E081
:10046000DF91CF911F910F91FF90EF900895AF9280
:10047000BF92CF92DF92EF92FF920F931F93CF9391
:10048000DF935C017B016115710509F45BC08C0190
:10049000C0E0D0E06B0181E0C81AD108209769F470
:1004A00085EC90E00E94F105F80180810E9427060A
:1004B00089EB90E00E94F10523C0CC16DD0609F01F
:1004C0005BC080EC90E00E94F105F1E0CF16D10412
:1004D00069F48BEB90E00E94F105F80180810E94A5
:1004E000270689EB90E00E94F10525C0F801808184
:1004F0000E94270689EB90E00E94F1052097D9F42D
:10050000F5018081803129F483EB90E00E94F105B0
:1005100012C0883229F48DEA90E00E94F1050BC0E8
:10052000823229F488EA90E00E94F10504C082EA50
:1005300090E00E94F10521960F5F1F4FCE15DF0559
:1005400009F0ACCF68E070E0C5010E945A01882331
:1005500029F087E990E00E94F10512C08CE890E054
:100560000E94F1050DC0F80180810E94270689EBE9
:1005700090E00E94F105DFCFC130D105A1F7A9CFEE
:10058000DF91CF911F910F91FF90EF90DF90CF906F
:10059000BF90AF9008950F931F93CF93DF93EC011B
:1005A0008B01B80188810E94FD04888381508D3FB2
:1005B00050F4F8019081983241F0903141F092323C
:1005C00081F780E005C081E003C080E001C080E0E9
:1005D000DF91CF911F910F910895CF93DF93EC019D
:1005E0000E943C04BE0184EB0E94570581E00E94FA
:1005F0009804C82F0E943C0481E0C11101C080E032
:10060000DF91CF9108951F93CF93DF93182FEB01C4
:100610000E943C040E94DA03882371F0113031F00B
:10062000BE0184E40E945B0580E00BC0BE0184E44F
:100630000E94570580E005C088E690E00E94F10521
:1006400082E0DF91CF911F910895EF92FF920F9377
:100650001F93CF93DF93CDB7DEB727970FB6F894EC
:10066000DEBF0FBECDBF9C017B01473008F460C0E8
:1006700089519C4F873F9A4208F05CC033232CF489
:1006800031952195310901E001C000E010E06AE0F8
:1006900070E0C9010E94770791E0910FE1E0F0E07E
:1006A000EC0FFD1FE10FF11D17FDFA95805D8083B2
:1006B000262F372F192F121613064CF3892F0023DC
:1006C00059F02DE2FE01E90FF11D97FDFA95218306
:1006D000882364F420E026C02BE2FE01E90FF11D1F
:1006E00097FDFA952183F4CF822F02C080E04EE27D
:1006F00021E0280F392F9150E1E0F0E0EC0FFD1FD1
:10070000E30FF11D3081F701E80FF11D30839111E6
:1007100007C0F701E20FF11D408322E0280FE4CF6C
:10072000992314F7F701E20FF11D108280E003C056
:1007300081E001C081E027960FB6F894DEBF0FBEBE
:10074000CDBFDF91CF911F910F91FF90EF90089552
:10075000EF92FF920F931F93CF93DF93CDB7DEB746
:1007600029970FB6F894DEBF0FBECDBF082F7B01CF
:1007700049E0BE016F5F7F4F80E090E00E940E0273
:10078000182F811109C0BE016F5F7F4F802F0E941B
:100790007701F70191838083812F29960FB6F89412
:1007A000DEBF0FBECDBFDF91CF911F910F91FF90A4
:1007B000EF900895E0914801F09149019081809176
:1007C000470189230895E0914501F0914601908108
:1007D00080914701892B8083E0914A01F0914B0180
:1007E000908180914701892B80830895CF93DF9377
:1007F000C82FDFB7F894E0914A01F0914B01908146
:1008000080914701892B80838AE08A95F1F700C0A7
:10081000CC2351F0E0914A01F0914B01208190915D
:10082000470190959223908385E48A95F1F7000023
:10083000E0914801F0914901208190914701922374
:1008400009F4C0E085EE8A95F1F70000E0914A01D5
:10085000F0914B01208190914701909592239083D4
:1008600061110E94E303DFBF85E38A95F1F7000081
:100870008C2FDF91CF910895E0914501F0914601D1
:10088000908180914701809589238083E0914A017E
:10089000F0914B01908180914701892B80838FE7F4
:1008A00097E00197F1F700C000002FB7F894E091AE
:1008B0004A01F0914B0190818091470180958923F5
:1008C0008083EFEFF0E03197F1F700C00000E09196
:1008D0004801F09149013081809147012FBFEFE736
:1008E000F6E03197F1F700C00000E0914801F09187
:1008F0004901208190914701922311F083230895AB
:1009000081E0089550934B0140934A017093460152
:1009100060934501909349018093480181E001C0B3
:10092000880F2A95EAF7809347010E943C040895B6
:1009300060E081700E94F6030895CF93DF93C82F83
:10094000D8E08C2F81700E949804C6958111C068F0
:10095000D150B9F78C2FDF91CF910895CF93DF93CA
:10096000C82FD8E0D13049F060E08C2F81700E9410
:10097000F603C695811109C009C061E08C2F817012
:100980000E94F603C695882319F0C068D15051F72C
:100990008C2FDF91CF910895EF92FF920F931F93C9
:1009A000CF93DF93E82EEB01F42E0E943C042097B6
:1009B00069F085E50E949D048E01085F1F4F8991B3
:1009C0000E949D04C017D107D1F703C08CEC0E9490
:1009D0009D04FF2021F08E2D0E94AE0403C08E2DB9
:1009E0000E949D04DF91CF911F910F91FF90EF9096
:1009F00008958FEF0E949D040895DF92EF92FF9279
:100A00000F931F93CF93DF93D82E8B010E943C044A
:100A100081112BC080EF0E949D04E12CC0E40F2EB9
:100A2000F8EFFF2EF02DFC0E81E00E949804D82FE5
:100A300081E00E949804882319F0DD23D1F017C0CB
:100A4000D11124C0CD15E8F0F801808180FF11C0DC
:100A5000DC121AC00EC0C150CF11E6CF0F5F1F4F7E
:100A6000CF2DF110DCCF8E2D1AC08FEF18C08EEF76
:100A700016C080E00E949804F801908196959083BA
:100A8000EACFEC2ED1E002C0EC2ED1E08D2F0E94F7
:100A90009804F8019081969590689083DCCFDF915F
:100AA000CF911F910F91FF90EF90DF90089540E05C
:100AB0000E94CC04089541E00E94CC0408951F9246
:100AC0000F920FB60F9211242F938F939F93EF9352
:100AD000FF938091C0002091C6008871E0910201CF
:100AE000EF5FEF7190910101E91739F0E093020196
:100AF000F0E0EB5FFE4F208301C082E080930001B5
:100B0000FF91EF919F918F912F910F900FBE0F90BA
:100B10001F9018951F920F920FB60F9211248F936A
:100B20009F93EF93FF939091040180910301981795
:100B300069F0E0910301EF5FEF71E0930301F0E0F2
:100B4000EB5DFE4F80818093C60005C0E1ECF0E0D4
:100B500080818F7D8083FF91EF919F918F910F9086
:100B60000FBE0F901F901895109204011092030170
:100B70001092020110920101992324F422E02093A3
:100B8000C0009F779093C5008093C40088E980934C
:100B9000C10086E08093C2000895209104012F5F78
:100BA0002F71909103012917E1F3E22FF0E0EB5D43
:100BB000FE4F808320930401E1ECF0E080818062AD
:100BC00080830895CF93DF93EC018881882331F0EF
:100BD00021960E94CD0589918111FBCFDF91CF91A4
:100BE0000895CF93DF93EC012196FC018491882333
:100BF00039F00E94CD05FE01849121968111F9CF33
:100C0000DF91CF910895CF93DF93CDB7DEB72A97C9
:100C10000FB6F894DEBF0FBECDBF4AE0BE016F5FD6
:100C20007F4F0E949F070E94E2052A960FB6F89414
:100C3000DEBF0FBECDBFDF91CF9108958F708A3098
:100C400010F0895C01C0805D0E94CD050895CF93AE
:100C5000C82F82958F700E941E068C2F0E941E0640
:100C6000CF910895CF93DF93CDB7DEB72D970FB611
:100C7000F894DEBF0FBECDBF87E690E00E94B405BA
:100C800027E04AE250E06BE270E089E290E00E94E7
:100C90008204789485E492E00E94F10589E192E073
:100CA0000E94F10585EF90E00E94F1050E943C044E
:100CB0008FEF8D87BE016D5F7F4FCE010D960E9435
:100CC000CB028D858F3F29F483EE90E00E94F105E1
:100CD000FBC08E3F29F487ED90E00E94F105F4C03F
:100CE000FE013396ACE4B1E0CE010B9621912D9339
:100CF000E817F907D9F78D858111DDC0EFC00CE445
:100D000011E06801EE24E394F12C8EEE91E00E9454
:100D1000F105C7010E9403068AEE91E00E94F105E9
:100D200068E070E0C6010E94370287EE91E00E9401
:100D3000F1052FEFE21AF20A88E0C80ED11C91E00B
:100D4000E91619F3EE24E394F12C8EED91E00E9464
:100D5000F105C7010E94030687ED91E00E94F105AD
:100D6000C02ED12EF8012081203129F488EC91E0A9
:100D70000E94F1050BC0223229F481EC91E00E941F
:100D8000F10504C089EB91E00E94F1058EEA91E043
:100D90000E94F1058C2D9D2D0E94ED02811105C050
:100DA00085EA91E00E94F10504C08AE991E00E9481
:100DB000F1058FE891E00E94F105FFEFEF1AFF0ABD
:100DC000085F1F4F21E0E21609F4BFCF81E08130B8
:100DD00009F05EC084E491E00E94F10510914C019D
:100DE00060E070E081E00E9403038FEF9EE9E4E29F
:100DF00081509040E040E1F700C00000BE016F5F0D
:100E00007F4F812F0E94A80389819A81873E910597
:100E100024F089E391E00E94F10589819A818C3E5A
:100E2000910524F08EE291E00E94F10589819A817A
:100E3000813F910524F083E291E00E94F1058981D0
:100E40009A81863F910524F088E191E00E94F105A6
:100E500085E191E00E94F10509811A81C8010E9493
:100E600003068DEC90E00E94F1054AE0BE016D5F43
:100E70007F4FC8010E942503CE0103960E94E20520
:100E800089EC90E00E94F10582E191E00E94F10579
:100E900084B18F6384B985B18F6385B98AB1806667
:100EA0008AB98BB180668BB987B18F6087B988B1F9
:100EB0008F6088B9EDCF81E090E00E94030689EF52
:100EC00091E00E94F1051BCF80E090E00E940306B4
:100ED00089EF91E00E94F10580E079CF81E090E018
:100EE0000E94030689EF91E00E94F10508CF97FB6D
:100EF000072E16F4009407D077FD09D00E948B07C7
:100F000007FC05D03EF4909581959F4F089570950C
:100F100061957F4F0895AA1BBB1B51E107C0AA1F13
:100F2000BB1FA617B70710F0A61BB70B881F991F8A
:100F30005A95A9F780959095BC01CD010895BB27DE
:100F40004A3031F4992322F4BDE2909581959F4F68
:100F50000C94AB07BB27FB015527AA27880F991FC5
:100F6000AA1FA41710F0A41B83955051B9F7A05DD8
:100F7000AA3308F0A95DA193009779F7B111B19355
:100F80001192CB010C94C407DC01FC01672F719115
:100F90007723E1F7329704C07C916D93708362915F
:0C0FA000AE17BF07C8F30895F894FFCF08
:00000001FF
