S018000031776972655F6D617274696E5F746F6D2E737265638B
S11300000C94FF000C941C010C941C010C941C0116
S11300100C941C010C941C010C941C010C941C01E8
S11300200C941C010C941C010C941C010C94780677
S11300300C941C010C941C010C946F070C941C016F
S11300400C941C010C941C010C9423050C944E0577
S11300500C941C010C941C010C941C010C941C01A8
S11300600C941C010C941C01445331385832305FF9
S113007073746172745F6D6561733A2053686F7253
S1130080742043697263756974210D0020435243DF
S1130090204F2E4B2E200020435243204641494CF2
S11300A0200028203F202900283232290028313816
S11300B04229002831385329002000534E3A2000A9
S11300C04352433A0046433A0020B043002064655B
S11300D06369B0432C2000427573204572726F72BD
S11300E00D0A004E6F2053656E736F7220666F7534
S11300F06E640D0A000D0A5363616E6E696E6720AB
S113010042757320666F7220445331385832300D73
S11301100A000D0A000D0A0020706F77657265648D
S11301200D0A0065787465726E616C6C790070619B
S11301307261736974650020776869636820697304
S11301402000445331384232300044533138323283
S113015000445331385332302F4453313832300055
S11301602069732061200053656E736F7223200031
S11301700D0A00203A20002320696E204275732066
S11301803A0020445331385832302053656E736F2F
S11301907228732920617661696C61626C653A0D1D
S11301A00A002D2D2D2D2D2D2D2D2D2D2D2D2D2DCB
S11301B02D2D2D2D2D2D2D2D2D2D2D2D2D2D2D2D6B
S11301C02D2D2D2D2D2D2D2D2D2D2D2D2D000D0ACB
S11301D04453313858323020312D576972652D52CD
S11301E065616465722044656D6F206279204D619C
S11301F07274696E2054686F6D61730D0A00112466
S11302001FBECFEFD8E0DEBFCDBF11E0A0E0B1E06C
S1130210E4EBF4E102C005900D92AA32B107D9F7DC
S113022021E0AAE2B1E001C01D92A03AB207E1F7D1
S11302300E9446080C94580A0C940000611571053C
S1130240B1F0FC01680F791F80E058E048E121918A
S1130250952F322F382730FF0CC08427869580686D
S113026026959150B1F7E617F70789F7089580E0CE
S113027008958695F5CFFB01418150E0542F442722
S11302809081492B9A01803191F44E7F440F551F80
S1130290440F551F440F551F96812CE030E0291B55
S11302A03109240F351F33230CF05BC002C05523E2
S11302B02CF4319521953109A1E001C0A0E08832E8
S11302C011F0823269F484818076803231F0803496
S11302D031F0811105C0287F03C02C7F01C02E7F1F
S11302E0A901529542954F7045275F704527BA0181
S11302F0660F771F440F551F440F551F440F551F9A
S1130300640F751F2F703327C9019695982F88277E
S113031097958795322F2227330F820F931FA111B0
S113032015C0AC015E5F452F5527469546959B0148
S1130330240F351FC9018A5D9D4F8930974018F4F9
S1130340822F932F089580ED97E00895892F9927A0
S1130350869586959B01280F391F31952195310982
S1130360E9CFF901F295E295EF70EF27FF70EF27DF
S1130370BF01660F771FEE0FFF1FEE0FFF1FEE0F7B
S1130380FF1F6E0F7F1FA9014F705527CA01969555
S1130390982F882797958795542F4427550F840FB6
S11303A0951FBFCFEF92FF920F931F93CF93DF93CD
S11303B07B01042FBC018EEB0E941B05002369F016
S11303C0E701015010E00F5F1F4F0E0D1F1D0E942B
S11303D0BD048993C017D107D1F769E070E0C70164
S11303E00E941E01811183E0DF91CF911F910F9133
S11303F0FF90EF900895AF92BF92CF92DF92EF9269
S1130400FF920F931F93CF93DF935C017B016115E0
S1130410710509F45BC08C01C0E0D0E06B0181E0A0
S1130420C81AD108209769F485EC90E00E94B505BC
S1130430F80180810E94EB0589EB90E00E94B505EC
S113044023C0CC16DD0609F05BC080EC90E00E946E
S1130450B505F1E0CF16D10469F48BEB90E00E946E
S1130460B505F80180810E94EB0589EB90E00E94BC
S1130470B50525C0F80180810E94EB0589EB90E069
S11304800E94B5052097D9F4F5018081803129F4C3
S113049083EB90E00E94B50512C0883229F48DEAFE
S11304A090E00E94B5050BC0823229F488EA90E0FE
S11304B00E94B50504C082EA90E00E94B505219629
S11304C00F5F1F4FCE15DF0509F0ACCF68E070E079
S11304D0C5010E941E01882329F087E990E00E944B
S11304E0B50512C08CE890E00E94B5050DC0F80176
S11304F080810E94EB0589EB90E00E94B505DFCF77
S1130500C130D105A1F7A9CFDF91CF911F910F91F0
S1130510FF90EF90DF90CF90BF90AF9008950F932E
S11305201F93CF93DF93EC018B01B80188810E9464
S1130530C104888381508D3F50F4F8019081983232
S113054041F0903141F0923281F780E005C081E0C2
S113055003C080E001C080E0DF91CF911F910F9133
S11305600895CF93DF93EC010E940004BE0184EB55
S11305700E941B0581E00E945C04C82F0E940004B5
S113058081E0C11101C080E0DF91CF9108951F93F4
S1130590CF93DF93182FEB010E9400040E949E0367
S11305A0882371F0113031F0BE0184E40E941F05EC
S11305B080E00BC0BE0184E40E941B0580E005C0FE
S11305C088E690E00E94B50582E0DF91CF911F910B
S11305D00895EF92FF920F931F93CF93DF93CDB7BC
S11305E0DEB727970FB6F894DEBF0FBECDBF9C01D0
S11305F07B01473008F460C089519C4F873F9A4281
S113060008F05CC033232CF431952195310901E0C5
S113061001C000E010E06AE070E0C9010E94EC094A
S113062091E0910FE1E0F0E0EC0FFD1FE10FF11D0F
S113063017FDFA95805D8083262F372F192F121608
S113064013064CF3892F002359F02DE2FE01E90F24
S1130650F11D97FDFA952183882364F420E026C0D8
S11306602BE2FE01E90FF11D97FDFA952183F4CFEA
S1130670822F02C080E04EE221E0280F392F9150F2
S1130680E1E0F0E0EC0FFD1FE30FF11D3081F70115
S1130690E80FF11D3083911107C0F701E20FF11D3E
S11306A0408322E0280FE4CF992314F7F701E20FE7
S11306B0F11D108280E003C081E001C081E0279633
S11306C00FB6F894DEBF0FBECDBFDF91CF911F915F
S11306D00F91FF90EF900895EF92FF920F931F9365
S11306E0CF93DF93CDB7DEB729970FB6F894DEBF6B
S11306F00FBECDBF082F7B0149E0BE016F5F7F4F66
S113070080E090E00E94D201182F811109C0BE013F
S11307106F5F7F4F802F0E943B01F701918380839D
S1130720812F29960FB6F894DEBF0FBECDBFDF919F
S1130730CF911F910F91FF90EF900895E091940154
S1130740F091950190818091930189230895E0911E
S11307509101F0919201908180919301892B808382
S1130760E0919601F0919701908180919301892BFA
S113077080830895CF93DF93C82FDFB7F894E09177
S11307809601F0919701908180919301892B808348
S11307908AE08A95F1F700C0CC2351F0E0919601EC
S11307A0F0919701208190919301909592239083E9
S11307B085E48A95F1F70000E0919401F0919501A8
S11307C0208190919301922309F4C0E085EE8A95EB
S11307D0F1F70000E0919601F0919701208190914A
S11307E0930190959223908361110E94A703DFBF28
S11307F085E38A95F1F700008C2FDF91CF9108955E
S1130800E0919101F0919201908180919301809502
S113081089238083E0919601F091970190818091E2
S11308209301892B80838FE797E00197F1F700C04C
S113083000002FB7F894E0919601F0919701908110
S113084080919301809589238083EFEFF0E03197C5
S1130850F1F700C00000E0919401F091950130811E
S1130860809193012FBFEFE7F6E03197F1F700C0D5
S11308700000E0919401F091950120819091930101
S1130880922311F08323089581E0089550939701F2
S11308904093960170939201609391019093950116
S11308A08093940181E001C0880F2A95EAF7809330
S11308B093010E940004089560E081700E94BA03CD
S11308C00895CF93DF93C82FD8E08C2F81700E94B6
S11308D05C04C6958111C068D150B9F78C2FDF91A3
S11308E0CF910895CF93DF93C82FD8E0D13049F04A
S11308F060E08C2F81700E94BA03C695811109C0F3
S113090009C061E08C2F81700E94BA03C6958823C8
S113091019F0C068D15051F78C2FDF91CF91089511
S1130920EF92FF920F931F93CF93DF93E82EEB0187
S1130930F42E0E940004209769F085E50E9461046A
S11309408E01085F1F4F89910E946104C017D1076F
S1130950D1F703C08CEC0E946104FF2021F08E2D9E
S11309600E94720403C08E2D0E946104DF91CF9116
S11309701F910F91FF90EF9008958FEF0E946104F3
S11309800895DF92EF92FF920F931F93CF93DF931B
S1130990D82E8B010E94000481112BC080EF0E948D
S11309A06104E12CC0E40F2EF8EFFF2EF02DFC0EB5
S11309B081E00E945C04D82F81E00E945C048823BB
S11309C019F0DD23D1F017C0D11124C0CD15E8F002
S11309D0F801808180FF11C0DC121AC00EC0C15022
S11309E0CF11E6CF0F5F1F4FCF2DF110DCCF8E2D2F
S11309F01AC08FEF18C08EEF16C080E00E945C040E
S1130A00F801908196959083EACFEC2ED1E002C054
S1130A10EC2ED1E08D2F0E945C04F8019081969514
S1130A2090689083DCCFDF91CF911F910F91FF905D
S1130A30EF90DF90089540E00E949004089541E013
S1130A400E94900408951F920F920FB60F921124E2
S1130A502F938F939F93EF93FF938091C0002091E6
S1130A60C6008871E0912C01EF5FEF7190912B012A
S1130A70E91739F0E0932C01F0E0E15DFE4F2083AB
S1130A8001C082E080932A01FF91EF919F918F91A1
S1130A902F910F900FBE0F901F9018951F920F92D9
S1130AA00FB60F9211248F939F93EF93FF9390911E
S1130AB02E0180912D01981769F0E0912D01EF5FCF
S1130AC0EF71E0932D01F0E0E15BFE4F80818093B4
S1130AD0C60005C0E1ECF0E080818F7D8083FF914A
S1130AE0EF919F918F910F900FBE0F901F901895CB
S1130AF010922E0110922D0110922C0110922B01B4
S1130B00992324F422E02093C0009F779093C5009A
S1130B108093C40088E98093C10086E08093C2007A
S1130B20089520912E012F5F2F7190912D01291787
S1130B30E1F3E22FF0E0E15BFE4F808320932E018E
S1130B40E1ECF0E08081806280830895CF93DF93AD
S1130B50EC018881882331F021960E9491058991C6
S1130B608111FBCFDF91CF910895CF93DF93EC01F7
S1130B702196FC018491882339F00E949105FE019D
S1130B80849121968111F9CFDF91CF910895CF936C
S1130B90DF93CDB7DEB72A970FB6F894DEBF0FBE4A
S1130BA0CDBF4AE0BE016F5F7F4F0E94230A0E94BF
S1130BB0A6052A960FB6F894DEBF0FBECDBFDF910F
S1130BC0CF9108958F708A3010F0895C01C0805DE8
S1130BD00E9491050895CF93C82F82958F700E942B
S1130BE0E2058C2F0E94E205CF910895CF93DF9305
S1130BF0CDB7DEB729970FB6F894DEBF0FBECDBFD1
S1130C0085EF90E00E94B5050E9400048FEF89876C
S1130C10BE016F5F7F4FCE0109960E948F028985C6
S1130C208F3F31F483EE90E00E94B50580E015C05B
S1130C308E3F31F487ED90E00E94B50580E00DC051
S1130C40FE013196A8E9B1E09E01275F3F4F8191F3
S1130C508D93E217F307D9F781E029960FB6F8943C
S1130C60DEBF0FBECDBFDF91CF9108950F931F93C9
S1130C70CF93DF93CDB7DEB72A970FB6F894DEBFD4
S1130C800FBECDBF8C010E94C7058DEC90E00E9481
S1130C90B5054AE0BE016F5F7F4FC8010E94E902BB
S1130CA0CE0101960E94A60589EC90E00E94B5054C
S1130CB02A960FB6F894DEBF0FBECDBFDF91CF9159
S1130CC01F910F91089560E070E081E00E94C702D7
S1130CD02FEF8EE994E2215080409040E1F700C06C
S1130CE000006AE871E0809198010E946C03089505
S1130CF01F920F920FB60F9211248F939F93AF936D
S1130D00BF938091770190917801A0917901B0917E
S1130D107A010196A11DB11D80937701909378010A
S1130D20A0937901B0937A01BF91AF919F918F9174
S1130D300F900FBE0F901F901895F8946091770153
S1130D40709178018091790190917A017894089555
S1130D5087B18F7C87B988B1806388B9089584B1DD
S1130D608F6384B98AB180668AB987B18F6087B985
S1130D700895109285001092840087E08093890082
S1130D8080ED80938800E0E8F0E010828081808329
S1130D90E1E8F0E080818A608083EFE6F0E0808122
S1130DA082608083089516BC8AEF87BD14BC84B525
S1130DB0826084BD85B5846085BDEEE6F0E0808107
S1130DC0826080830895CF92DF92EF92FF921F9307
S1130DD0CF93DF9316B1C82FD0E0FE01E050FF4F50
S1130DE080811823FE01E957FE4F8081811789F025
S1130DF0FE01E957FE4F10830E949D06FE01EE0F8F
S1130E00FF1FEE0FFF1FE158FE4F60837183828343
S1130E1093830E949D06FE01EE0FFF1FEE0FFF1F3E
S1130E20E158FE4FC080D180E280F380DC01CB0129
S1130E308C199D09AE09BF098897A105B105C8F0B1
S1130E40FE01EE5FFE4F8081811799F0FE01EE5F97
S1130E50FE4F10831095FE01E050FF4F8081FE018C
S1130E60E358FE4F912F98239083C558DE4F1827DF
S1130E701883DF91CF911F91FF90EF90DF90CF9077
S1130E800895813158F5643048F590E0FC01EE0F87
S1130E90FF1FE85FFE4F2081623009F4216035B105
S1130EA0322B35B935B1206C232325B9880F991F0E
S1130EB0FC01E85FFE4F81819BB1982B9BB99BB1EC
S1130EC08F6989238BB988B1807F88B998B1E62F5F
S1130ED0F0E0EC5FFE4F8081892B88B908951F9262
S1130EE00F920FB60F9211242F933F934F935F935A
S1130EF06F937F938F939F93AF93BF93EF93FF93DE
S1130F0080918C01837080938C0160918C01E091BD
S1130F108C01F0E0E357FE4F80810E9441078091ED
S1130F208C018F5F80938C01FF91EF91BF91AF9102
S1130F309F918F917F916F915F914F913F912F91ED
S1130F400F900FBE0F901F901895CF93DF93EC0175
S1130F509C01369527953695279536952795A5ECCA
S1130F60B0E20E94000AFC01F295E295EF70EF27CF
S1130F70FF70EF2728EE33E0E29FC001E39F900D5E
S1130F80F29F900D1124AE01481B590BDD230CF484
S1130F904AC09A013695279536952795ABE7B4E173
S1130FA00E94000AEC01D695C79524E62C9FC00147
S1130FB02D9F900D1124481B590B9A01ADECBCECEC
S1130FC00E94000A9695879596958795969587959C
S1130FD0BC01660F771F9C01220F331F220F331FA2
S1130FE0220F331F260F371F421B530B209719F470
S1130FF0309731F009C0309739F4EAE0F0E004C0EA
S1131000CAE0D0E0EAE0F0E09FB7F894ADE8B1E0E0
S1131010EC931196CC93119712968C931297139686
S11310204C939FBF30C09A013695279536952795E6
S1131030ABE7B4E10E94000AEC01D695C79524E61B
S11310402C9FC0012D9F900D1124481B590B9A0110
S1131050ADECBCEC0E94000A969587959695879511
S113106096958795BC01660F771F9C01220F331F4D
S1131070220F331F220F331F260F371F421B530B20
S1131080EBE0F0E0C1CFDF91CF91089587E690E0E7
S11310900E94780527E04AE250E06BE270E089E2C2
S11310A090E00E94460478948EEC91E00E94B5058D
S11310B082EA91E00E94B5050E94F605F82E90E0C0
S11310C00E94C70582E891E00E94B505FF2009F45B
S11310D03BC1C8E9D1E00FEF0F0D10E00E5F1F4FC9
S11310E05E01CC24C394D12C87E791E00E94B5051E
S11310F0C6010E94C70583E791E00E94B50568E038
S113110070E0C5010E94FB0180E791E00E94B505F3
S11311102FEFC21AD20A38E0A30EB11CC016D106B2
S113112019F701E010E087E691E00E94B505C801D7
S11311300E94C70580E691E00E94B505DC2EED2EE5
S11311402881203129F481E591E00E94B5050BC086
S1131150223229F48AE491E00E94B50504C082E4B5
S113116091E00E94B50587E391E00E94B5058D2DBD
S11311709E2D0E94B102811105C08EE291E00E9471
S1131180B50504C083E291E00E94B50588E191E0D1
S11311900E94B5050F5F1F4F28968FEF800F8F15A4
S11311A010F2ECC03FB7F894208381838283938349
S11311B03FBF4FEF53ED30E3415050403040E1F733
S11311C000C00000EFCF80918901813009F086C012
S11311D00E949D06409073015090740160907501C7
S11311E070907601DC01CB0184199509A609B70931
S11311F0883E9340A105B10500F10E949D066093CD
S113120073017093740180937501909376010E9429
S1131210630680918A0190918B010E94A50785E164
S113122091E00E94B50580918A0190918B010E9402
S1131230360682E191E00E94B50580918A01909181
S11312408B018F3051E09507D4F08FB7F894F88272
S113125019831A830B838FBF0E9463068FEF99E66D
S1131260E8E181509040E040E1F700C00000809147
S11312708A0190918B018F30F1E09F0734F78B3E08
S113128091051CF50E949D0620916F01309170011B
S11312904091710150917201DC01CB01821B930BCF
S11312A0A40BB50B8A3F9105A105B10570F00E940E
S11312B09D0660936F017093700180937101909308
S11312C07201EB248AE08E0D888380918A019091CB
S11312D08B018B3F910514F02AE0288380E00E9463
S11312E0E306F6018081882309F46DCF809189019A
S11312F0813071F41082909289018AEF90E00E940B
S1131300A5078DE08883F6018081882309F45BCFEB
S113131080918901823071F4F6011082A0928901D2
S11313208BEE90E00E94A5078882F60180818823D5
S113133009F449CF80918901833009F044CFF60143
S11313401082B09289013FCF0E94AF060E94D3065B
S11313500E94B9060E94A80681E080938901FFEFEC
S113136023ED30E3F15020403040E1F700C00000AD
S1131370EDE8F1E02FE080E191E014CF0E94AF06A8
S11313800E94D3060E94B9060E94A80681E08093B9
S113139089014FEF53ED80E3415050408040E1F725
S11313A000C00000E12CCDE8D1E00F2EFFE0FF2EBD
S11313B0F02D10E103E0A02EBB24B3940F2EFDE723
S11313C0CF2EF1E0DF2EF02D0F2EFEE08F2EF02D2C
S11313D06894992491F8F7CE97FB072E16F400949D
S11313E007D077FD09D00E940F0A07FC05D03EF410
S11313F0909581959F4F0895709561957F4F0895BD
S1131400A29FB001B39FC001A39F700D811D112441
S1131410911DB29F700D811D1124911D0895AA1B69
S1131420BB1B51E107C0AA1FBB1FA617B70710F0CB
S1131430A61BB70B881F991F5A95A9F780959095FD
S1131440BC01CD010895BB274A3031F4992322F41D
S1131450BDE2909581959F4F0C942F0ABB27FB0109
S11314605527AA27880F991FAA1FA41710F0A41B99
S113147083955051B9F7A05DAA3308F0A95DA193F3
S1131480009779F7B111B1931192CB010C94480AEA
S1131490DC01FC01672F71917723E1F7329704C0D7
S11314A07C916D9370836291AE17BF07C8F3089562
S10714B0F894FFCFDA
S11314B410201020010204083A600A002C602E4017
S11314C41E00364036602A003E603E400000100094
S10D14D404002000004034600420EE
S9030000FC
